:020000040800F2
:10000000680D0020DD170008390700083B070008CD
:100010003F070008430700084707000800000000EA
:100020000000000000000000000000004B07000876
:100030004D070008000000004F07000851070008A6
:10004000F7170008F7170008F7170008F717000858
:10005000F7170008F7170008F7170008F717000848
:10006000F7170008F7170008F7170008F717000838
:10007000F7170008F7170008F7170008F717000828
:10008000F7170008F7170008F7170008F717000818
:10009000F7170008F7170008F7170008F717000808
:1000A000F7170008F7170008F7170008F7170008F8
:1000B000F71700087F0B0008F7170008F71700086C
:1000C000F7170008F7170008F7170008F7170008D8
:1000D000F71700085117000891150008B10B000828
:1000E000F7170008F7170008F7170008F7170008B8
:1000F000F7170008F7170008F7170008F7170008A8
:10010000F7170008F7170008F7170008F717000897
:10011000F7170008F7170008F7170008A10A0008EA
:10012000F7170008F7170008F7170008F717000877
:10013000DFF810D004F004FA004800475F0100081F
:10014000AFF30080680D002070B50446049D601A6E
:10015000EE1A7043561A90FBF6F0184470BD86B044
:100160004FF0000B0020059001F02EFA4FF4A06034
:1001700001F046FB03F0E4FD4FF4E13001F09CFA9E
:1001800000F0D8FB4FF4E13001F092F901F0DAF819
:1001900000F0F6FB03F0B6FA03F0E7FA41F61F4170
:1001A000092000F0BFFCC9E1012104A801F0E7F932
:1001B00068B19DF8100000F0B5FD0028F3D0E048CC
:1001C00040785528EFD1DE4800F029FEB6E1012045
:1001D00001F037FA0521012003F015FED949088006
:1001E00005210A2003F00FFED749088005210B20C6
:1001F00003F009FED549088040F6E440002340F6AC
:10020000FF7219460090CF480088FFF79DFFD04944
:10021000086040F6E440002340F6FF721946009063
:10022000C9480088FFF790FFCA49086040F6E440DB
:10023000002340F6FF7219460090C4480088FFF77B
:1002400083FFC5490860C2480068962803DA002089
:10025000C249086018E0BE48006840F6E4418842A0
:1002600004DD44F62060BD4908600DE044F62060DE
:100270004FF4FA7340F6E44296210090B4480068C7
:10028000FFF762FFB5490860B2480068962803DAB4
:100290000020B349086018E0AE48006840F6E44129
:1002A000884204DD44F62060AD4908600DE044F664
:1002B00020604FF4FA7340F6E44296210090A5487E
:1002C0000068FFF741FFA6490860A3480068962828
:1002D00003DA0020A349086018E09F48006840F650
:1002E000E441884204DD44F620609E4908600DE048
:1002F00044F620604FF4FA7340F6E44296210090F1
:1003000095480068FFF720FF964908609648016805
:1003100096A004F027F9914803688D48026889483F
:10032000018898A004F01EF98D4803688948026886
:100330008548018893A004F015F98A480368864827
:100340000268824801888FA004F00CF997498868F8
:1003500003F035FF04460D469449486803F02FFF2B
:1003600006460F469149086803F029FF8046424639
:100370000B468FA0CDE90067CDE9024504F0F2F805
:100380009949086A03F01BFF04460D469649C8695F
:1003900003F015FF06460F469349886903F00FFFE7
:1003A000804642460B4691A0CDE90067CDE9024563
:1003B00004F0D8F88C49486903F001FF04460D4663
:1003C0008949086903F0FBFE06460F468649C8685E
:1003D00003F0F5FE804642460B4692A0CDE9006749
:1003E000CDE9024504F0BEF89C48B0F90430B0F9FC
:1003F0000220B0F900109AA004F0B4F8A4484268B2
:100400000168A4A004F0AEF8002000F0D3FA824600
:10041000BAF1040F12D14FF0000B01200590A5484E
:10042000006858B90020A3490860012001F009F9CB
:100430000120A149C1F8BC0101F003F90598002889
:100440007BD09C48AC380068002873D043480368D0
:100450003F4802683B48018898A000F031FC5349AE
:10046000886803F0ACFE04460D465049486803F026
:10047000A6FE06460F464D49086803F0A0FE8046DA
:1004800042460B4690A0CDE90067CDE9024500F059
:1004900017FC5549086A03F092FE04460D4652497E
:1004A000C86903F08CFE06460F464F49886903F081
:1004B00086FE804642460B4689A0CDE90067CDE91D
:1004C000024500F0FDFB4849486903F078FE044608
:1004D0000D464549086903F072FE06460F4642493B
:1004E000C86803F06CFE804642460B4676A0CDE914
:1004F0000067CDE9024500F0E3FB5848B0F904304D
:10050000B0F90220B0F900107BA000F0D9FB6048E0
:10051000426801687EA000F0D3FB012001F091F851
:100520007FA000F0CDFB012001F08BF80BF1010B57
:1005300003E0FFE77BA004F015F800BF34E60000FD
:100540003C070020080000200A0000200C000020CA
:100550001000002014000020180000201C000020C3
:10056000200000202400002000000020636C6F6346
:100570006B2074696D653A20256C64206D73200DC5
:100580000A0000004144D6B5203D2025642CB5E783
:10059000D1B9203D202564206D762CD1B9C1A6208B
:1005A0003D20256C6420670D0A000000E406002051
:1005B000D7CBCCACBDC75B58595A5D3A2020202020
:1005C000252D362E31662020202020252D362E3157
:1005D000662020202020252D362E31662020202840
:1005E000A1E3290D0A00000000070020BCD3CBD9ED
:1005F000B6C85B58595A5D3A20202020252D362E4A
:1006000033662020202020252D362E336620202002
:100610002020252D362E33662020202867290D0A1C
:1006200000000000BDC7CBD9B6C85B58595A5D3A27
:1006300020202020252D362E316620202020202528
:100640002D362E31662020202020252D362E316695
:1006500020202028A1E32F73290D0A002407002061
:10066000B4C5B3A15B58595A5D20203A2020202000
:10067000252D36642020202020252D3664202020A2
:100680002020252D3664202020287554290D0A00AD
:1006900030070020C6F8D1B920092020203A2020B8
:1006A0002020252D36645061202020252D366463BE
:1006B0006D0D0A00BC012142000021422564202565
:1006C0006420256C64200000252D362E31662025FF
:1006D0002D362E316620252D362E31662000000065
:1006E000252D362E336620252D362E336620252DDA
:1006F000362E336620000000252D366420252D3649
:100700006420252D3664202875542920000000001F
:10071000252D3664506120252D3664636D20000040
:100720000D0A0000434845434B20424C452053549A
:1007300041544521200D0A00704700BFFEE700BF6D
:10074000FEE700BFFEE700BFFEE770477047704757
:10075000704700000CB50020019000906C480068C4
:1007600040F480306A49086000BF6948006800F4BE
:10077000003000900198401C0190009818B9019831
:10078000B0F5A06FF1D16248006800F4003010B1FC
:100790000120009001E0002000900098012843D142
:1007A0005C48006840F010005A490860084600683C
:1007B00020F0030008600846006840F0020008606E
:1007C00053484068524948600846406848600846B7
:1007D000406840F4806048600846406820F47C101F
:1007E00048600846406840F4E810486008460068E1
:1007F00040F08070086000BF4548006800F000705D
:100800000028F9D04248406820F003004049486081
:100810000846406840F00200486000BF3C4840681D
:1008200000F00C000828F9D10CBD10B5FFF792FFBD
:1008300010BD10B53648006840F00100344908602A
:100840000846406834490840314948600846006815
:10085000324908402E4908600846006820F480208C
:1008600008600846406820F4FE0048604FF41F000E
:100870008860FFF7DAFF4FF000602949086010BD7B
:1008800010B5002100200022214B5B6803F00C0111
:1008900021B1042906D0082928D107E0214B224C98
:1008A000236027E01F4B204C236023E0184B5B683C
:1008B00003F47010164B5B6803F48032022303EBE1
:1008C000904022B9194B4343174C23600DE0104B65
:1008D0005B6803F4003323B1144B4343124C236091
:1008E00003E0104B4343104C236003E00D4B0E4CD0
:1008F000236000BF00BF064B5B68C3F303130C4CBF
:10090000E15C094B1B68CB40074C236010BD000025
:1009100000100240002002400000FFF8FFFFF6FE3A
:1009200008ED00E000127A003000002000093D00D0
:100930003400002008B50121482001F0EBFA202006
:10094000ADF8000010208DF8030003208DF80200A0
:100950006946094801F022F82021074801F0CBF848
:100960002020ADF800006946044801F017F8202166
:10097000024801F0C0F808BD000C01400018014019
:1009800008B50121442001F0C5FA1C20ADF8000093
:1009900048208DF803006946354800F0FFFF01202C
:1009A000ADF8000028208DF803006946314800F0BA
:1009B000F5FF08BD10B5044614B101202E4908709A
:1009C0002D480078002837D01021294801F079F807
:1009D00078B10821264801F074F850B10421244868
:1009E00001F06FF828B10121224801F06AF80128CE
:1009F00022D10A2000F025FE00201F490870102196
:100A00001B4801F05EF808B9012010BD0821184804
:100A100001F057F808B90220F7E70421144801F063
:100A200050F808B90320F0E70121124801F049F815
:100A300001281BD10420E8E710210D4801F041F8FE
:100A4000012813D108210A4801F03BF801280DD1F3
:100A50000421074801F035F8012807D10121054894
:100A600001F02FF810B90120034908700020CCE7ED
:100A700000180140000801404400002010B5044661
:100A80000021474802F072FB45482C3000880020C6
:100A900043492C310880084600882043088010BD57
:100AA00010B501213E4802F096FB68B101213C4897
:100AB00002F0A2FB3B48008840F40040394908801E
:100AC0000021374802F0BEF810BD7FB505460C4640
:100AD0000121202001F02BFAADF80450ADF80040C0
:100AE0000020ADF80600ADF8020069462C4801F080
:100AF0004DFD012211462A4802F0BFF80121284885
:100B000002F0A0F837208DF80C0000208DF80D00C1
:100B100002208DF80E0001208DF80F0003A800F0D0
:100B200074FE7FBD7FB505460C460121022001F011
:100B3000FEF9ADF80850ADF804400020ADF80A0009
:100B4000ADF8060001A9184801F020FD0122114668
:100B5000154802F092F81D208DF8000000208DF855
:100B6000010003208DF8020001208DF80300684683
:100B700000F04BFE01210C4802F064F87FBD10B577
:100B80000121094802F027FB40B10121064802F08B
:100B900033FB06480068401C0449086010BD000093
:100BA0000014004046000020000400400000002027
:100BB00010B540F22551544801F0D0FBF8B152482D
:100BC00001F04CFBC4B25148008800F40040B0B9B9
:100BD0004E480088B0F5806F12DA00214C4802F0D0
:100BE000C5FA4A48008818B90121494802F02AF894
:100BF00046490888411C454A118046490C5405E085
:100C00004248008840F400404049088010BD1CB5AF
:100C100004460121082001F07DF90121880401F03A
:100C200086F9394801F0DAF94FF48060ADF8000038
:100C300003208DF8020018208DF80300694636481D
:100C400000F0ACFE4FF40060ADF8000048208DF8D5
:100C500003006946304800F0A1FE304804600020DF
:100C60002E498880C880088188810C2048812648C8
:100C700001F0F7F90121244801F07FFA012240F246
:100C80002551214801F085FA27208DF80400022023
:100C90008DF8050003208DF8060001208DF807006F
:100CA00001A800F0B2FD41F61F416320FFF70DFFE0
:100CB0000020164908800021154801F0C3FF1CBD23
:100CC0000FB438B505A800901548009A049903F0B0
:100CD0006DFC00200090124803F0D6F885B2002485
:100CE0000DE000BF4021084801F022FB0028F9D0A8
:100CF0000B48015D044801F0ADFA601C84B2AC42BF
:100D0000EFDB38BC5DF814FB0048004046000020D3
:100D1000001400407C000020000C0140D40600209C
:100D20007C0400200146FE480078062870D2DFE8E7
:100D300000F0030D202B435C552904D10120F84A13
:100D40001070F8480170F848017065E0552901D02D
:100D5000AF2905D10220F24A1070F248417002E03A
:100D60000020EF4A1070F04800780844EE4A1070F6
:100D700052E0EC4881700320E94A1070EA4800789C
:100D80000844E94A107047E01C2911DCE548C170AD
:100D90000020E64A1070002901DD042000E0052053
:100DA000DF4A1070E04800780844DF4A107002E023
:100DB0000020DB4A10702FE0DA48001DDB4A127871
:100DC0008154DA480078401CD84A1070D648007820
:100DD0000844D54A1070D348C078D44A127890425B
:100DE00002D10520CE4A107016E0CF480078884224
:100DF00009D1CD480078CB4A82F820000020C84AAB
:100E00001070012070470020C54A107004E0FFE711
:100E10000020C34A107000BF00BF0020F2E72DE998
:100E2000F0410446A07801283CD16079000200B26C
:100E3000217940EA0105284603F0B3F907464FF04F
:100E40008E4103F05AF80646B94903F024F8B9492F
:100E50000860E079000200B2A17940EA0105284665
:100E600003F09FF907464FF08E4103F046F806461F
:100E7000AF4903F010F8AF494860607A000200B251
:100E8000217A40EA0105284603F08BF907464FF026
:100E90008E4103F032F80646A54902F0FCFFA54951
:100EA00088608BE1A078022840D16079000200B20E
:100EB000217940EA0105284603F073F906464FF010
:100EC0008E4103F01AF89C490860E079000200B2F4
:100ED000A17940EA0105284603F063F906464FF080
:100EE0008E4103F00AF894494860607A000200B22B
:100EF000217A40EA0105284603F053F906464FF0EF
:100F00008E4102F0FAFF8C498860E07A000200B25C
:100F1000A17A40EA0105284603F043F906464FF05E
:100F20008E4102F0EAFF8449C86047E1A0780328B7
:100F30007DD16079000200B2217908437F49C880E1
:100F4000E079000200B2A17908437C490881607A07
:100F5000000200B2217A084378494881E07A000211
:100F600000B2A17A084375490880607B000200B294
:100F7000217B084371494880E07B000200B2A17BDD
:100F800008436E4988806E4949786E4A505C03F088
:100F900011F906466949B1F9060003F002F907465E
:100FA0004FF08E4102F0A9FF0546314602F073FF73
:100FB0006249886162494978624A505C03F0FAF8F4
:100FC00006465E49B1F9080003F0EBF807464FF01A
:100FD0008E4102F092FF0546314602F05CFF574910
:100FE000C86157494978574A505C03F0E3F8064610
:100FF0005249B1F90A0003F0D4F807464FF08E4188
:1010000002F07BFF0546314602F045FF4B4908627E
:101010004B4909784C4A32F8110003F0CBF80646E8
:101020004649B1F9000003F0BCF8074600E03AE099
:101030004FF08E4102F061FF0546314602F02BFF72
:101040003E49C8603E4909783F4A32F8110003F032
:10105000B1F806463949B1F9020003F0A2F8074693
:101060004FF08E4102F049FF0546314602F013FF72
:101070003249086132490978334A32F8110003F0E5
:1010800099F806462D49B1F9040003F08AF807469D
:101090004FF08E4102F031FF0546314602F0FBFE73
:1010A000264948618AE0A078042824D160790002AA
:1010B00000B22179084325490880E079000200B296
:1010C000A179084321494880607A000200B2217A60
:1010D00008431E498880E07A000200B2A17A40EA03
:1010E0000105284603F05DF80646194902F005FFA0
:1010F0001649886062E0A078052844D1E0790106AD
:10110000A07941EA0041607941EA00202179084351
:1011100010490860E07A0106A07A41EA00411BE02C
:10112000540000203C0700205500002056000020FD
:1011300000003443E4060020F006002000070020F1
:10114000500000208C4E0008844E00082407002028
:101150000000C84230070020607A41EA0020217A6E
:10116000084396494860607B000200B2217B40EA58
:101170000105284603F015F80646914902F0BDFE28
:101180008E4988601AE0A078062817D12179607905
:1011900041EA00208B490880A179E07941EA0020EA
:1011A00088494880217A607A41EA00208549888010
:1011B000A17AE07A41EA00208249C880BDE8F08146
:1011C0002DE9FC4107460C46154655208DF80000D8
:1011D000AF208DF801008DF802708DF80350E0B259
:1011E0008DF80400022D20D120128DF805009DF805
:1011F00000009DF8011008449DF8021008449DF875
:10120000031008449DF8041008449DF80510084494
:10121000C0B28DF80600002604E00DEB060000F0D9
:10122000A0F9761C072EF8DB19E09DF800009DF868
:10123000011008449DF8021008449DF8031008446A
:101240009DF804100844C0B28DF80500002604E0A3
:101250000DEB060000F085F9761C062EF8DBBDE8E4
:10126000FC817CB5054655208DF80000AF208DF837
:10127000010045F080008DF8020001208DF8030088
:1012800000208DF804009DF800009DF8011008442E
:101290009DF8021008449DF8031008449DF80410BE
:1012A0000844C0B28DF80500002404E00DEB0400F2
:1012B00000F057F9641C062CF8DB7CBDF8B5064637
:1012C0000C46002500BF0121684600F058F90028AF
:1012D000F9D13046FFF7C5FF33E00121684600F041
:1012E0004EF928B39DF80000FFF71CFD48B33648BF
:1012F0004078552803D13448FFF791FD21E032486A
:101300004078AF281DD13048C078012803D12E483D
:10131000007920800AE02C48C078022806D12A48AB
:101320000179407941EA002000B220800120F8BD17
:10133000012000F086F9681C85B2C82D01DD00206F
:10134000F5E7CAE708B5012203210846FFF738FF91
:10135000012203210420FFF733FF01223F2108204F
:10136000FFF72EFF012205210A20FFF729FF0122A6
:1013700000210846FFF724FF69460320FFF79EFF80
:10138000BDF800001149087069460420FFF796FF78
:10139000BDF800000D49487069460520FFF78EFF33
:1013A000BDF800000949887069460620FFF786FFEE
:1013B000BDF800000549C87008BD000030070020D6
:1013C0000000C842480000203C07002050000020D8
:1013D000016082800023C380038170470146C88872
:1013E0000A89904204DBC8880A89801A80B2704753
:1013F00088880A89801ACA88104480B2F7E700B545
:1014000003461846FFF7EAFF9988081A401E80B283
:1014100000BD0146C8880A89904201D10120704769
:101420000020FCE770B50B4600210CE05C5CC68830
:101430000568AC55C488641C858894FBF5F605FBEB
:101440001644C480491C9142F0DB70BDF0B50546DE
:101450000E4614462846FFF7D2FF0746A74201DA98
:101460000120F0BD224631462846FFF7DBFF002071
:10147000F7E7F0B503460E4614461846FFF7AEFFF1
:101480000546A54200DD254600200CE01A891968B2
:10149000895C31541989491C9A8891FBF2F702FB47
:1014A00017111981401CA842F0DB2846F0BD00004E
:1014B00010B586B004460121042000F02BFD012167
:1014C000480400F034FD0420ADF8140003208DF82A
:1014D000160018208DF8170005A9374800F05EFAAD
:1014E0000820ADF8140004208DF8170005A9324833
:1014F00000F054FA26208DF8000000208DF801003D
:101500008DF8020001208DF80300684600F07DF997
:1015100001940020ADF80800ADF80A00ADF80C0009
:10152000ADF810000C20ADF80E0001A9234800F022
:1015300098FD012240F22551204800F02AFE0121A9
:101540001E4800F01AFE4FF480721D491D48FFF737
:101550003FFF4FF480721A491A48FFF739FF06B06F
:1015600010BD10B504462178144800F073FE00BF8A
:101570008021124800F0DCFE0028F9D010BD70B5C3
:1015800004460D462A4621460E48FFF772FF70BDFD
:1015900008B540F22551094800F0E0FE50B1074877
:1015A00000F05CFEC0B20090012269460548FFF7DA
:1015B0004DFF00BF08BD000000080140004400408E
:1015C000600700206008002010B56FF0040000F0F4
:1015D00066F92E4800682E49B0FBF1F02D490870DD
:1015E0000846007800EB4001C1EBC0104FF6FF71D8
:1015F00001EAC0002849088010BD0146254A12783A
:101600004A434FF0E0235A6100229A611A46126958
:1016100042F001021A6100BF4FF0E022106900F0B1
:1016200001021AB100F48032002AF5D04FF0E02216
:10163000126922F001024FF0E0231A6100229A6140
:1016400070470146144A12884A434FF0E0235A611A
:1016500000229A611A46126942F001021A6100BF23
:101660004FF0E022106900F001021AB100F480325C
:10167000002AF5D04FF0E022126922F001024FF06B
:10168000E0231A6100229A617047000030000020B8
:1016900000127A00580000205A00002000BF704756
:1016A00000BF4A4A128802F04002002AF9D0C2B2B2
:1016B000464B1B1D1A80704710B586B004460121A9
:1016C00044F2040000F026FC4FF40070ADF8140062
:1016D00003208DF8160018208DF8170005A93C4846
:1016E00000F05CF94FF48060ADF8140004208DF830
:1016F000170005A9364800F051F925208DF80000A3
:1017000003208DF801008DF8020001208DF8030000
:10171000684600F07AF801940020ADF80800ADF8B2
:101720000A00ADF80C00ADF810000C20ADF80E006A
:1017300001A9264800F095FC012240F225512348DA
:1017400000F027FD0121214800F017FD06B010BD73
:1017500010B540F225511D4800F000FE10B31B48A3
:1017600000F07CFDC4B21B48008800F40040C8B9FA
:101770001848008800F4804060B10A2C03D0002093
:101780001449088020E01348008840F400401149C3
:10179000088019E00D2C06D10E48008840F48040E6
:1017A0000C49088010E00B480088C0F30D000A497E
:1017B0000C5408480088401C0649088008460088E8
:1017C000C72801DD0020088010BD0000003801405E
:1017D00000080140600000206C0800200648804797
:1017E00006480047FEE7FEE7FEE7FEE7FEE7FEE706
:1017F000FEE7FEE7FEE7FEE73308000831010008D8
:1018000031490143314A1160704770B5002100230E
:101810000F22C47804B32D4C246804F4E064C4F5AA
:10182000E064210AC1F10403CA40447804FA03F1D8
:101830008478144021430901254C0678A155047889
:1018400004F01F050124AC4005786D11AD0005F1D1
:10185000E025C5F8004109E0047804F01F050124E3
:10186000AC401C4D0678761145F8264070BD1A4AEA
:101870000A400243154B1B1F1A60704739B1134AC7
:10188000121D12680243114B1B1D1A6006E00F4A1D
:10189000121D126882430D4B1B1D1A6070470428ED
:1018A00008D14FF0E021096941F004014FF0E02236
:1018B000116107E04FF0E021096921F004014FF0C8
:1018C000E0221161704700000000FA050CED00E015
:1018D00000E400E080E100E080FFFF1F10B5044657
:1018E000CC48844208D10121042000F02DFB0021C6
:1018F000042000F029FB46E0C748844208D10121BA
:10190000082000F021FB0021082000F01DFB3AE038
:10191000C248844208D10121102000F015FB0021AB
:10192000102000F011FB2EE0BD48844208D10121B7
:10193000202000F009FB0021202000F005FB22E020
:10194000B848844208D10121402000F0FDFA00216E
:10195000402000F0F9FA16E0B348844208D1012192
:10196000802000F0F1FA0021802000F0EDFA0AE07A
:10197000AE48844207D10121801500F0E5FA00212C
:10198000A01500F0E1FA10BD10B50121084600F0E5
:10199000DBFA0021012000F0D7FA10BD2DE9F0415B
:1019A000024600250026002000230024002791F88D
:1019B00003C00CF00F0591F803C00CF0100CBCF143
:1019C000000F03D091F802C04CEA050591F800C061
:1019D000BCF1000F31D0146800202BE04FF0010C57
:1019E0000CFA00F3B1F800C00CEA03069E4220D1C5
:1019F00083004FF00F0C0CFA03F7BC4305FA03FC0D
:101A00004CEA040491F803C0BCF1280F06D14FF052
:101A1000010C0CFA00FCC2F814C00AE091F803C0F3
:101A2000BCF1480F05D14FF0010C0CFA00FCC2F8D4
:101A300010C0401C0828D1D31460B1F800C0BCF11C
:101A4000FF0F34DD546800202EE000F1080C4FF049
:101A5000010808FA0CF3B1F800C00CEA03069E4234
:101A600021D183004FF00F0C0CFA03F7BC4305FAA9
:101A700003FC4CEA040491F803C0BCF1280F05D123
:101A800000F1080C08FA0CF8C2F8148091F803C0B1
:101A9000BCF1480F07D100F1080C4FF0010808FA1B
:101AA0000CF8C2F81080401C0828CED35460BDE862
:101AB000F0814FF6FF710180022181700421C17015
:101AC00070470246002093680B400BB1012000E0F4
:101AD000002070470146886880B2704702460020A7
:101AE000D3680B400BB1012000E000207047014695
:101AF000C86880B2704701617047416170470AB1A0
:101B0000016100E041617047C16070474FF480326D
:101B10000A438261816182618269826970470246FB
:101B20000020434B18684FF68073184040EA0210BB
:101B300008433F4B186070473E49C8617047F0B595
:101B40000A46002300240021002500F00046B6F1DB
:101B5000004F02D1364EF16901E0354E7168C0F395
:101B6000034583B200F44016B6F5401F08D121F0BA
:101B700070612F4E766826F070662D4F7E6012E001
:101B800000F48016B6F5801F06D1032606FA05F488
:101B9000A14341F0706106E0460D360103FA06F6F6
:101BA000B14341F0706122B1460D360103FA06F6E9
:101BB000314300F00046B6F1004F02D11C4EF161F6
:101BC00001E01B4E7160F0BD30B500228B071C0F89
:101BD0000F2303FA04F2164B08338C1053F8243009
:101BE0009343134C08348D1044F8253023468C1051
:101BF00053F824308C07240F00FA04F423430C4CD0
:101C000008348D1044F8253030BD0A49DC310860B5
:101C10007047000000080140000C01400010014026
:101C20000014014000180140001C01400020014048
:101C30000000014000002042DF48006840F0010041
:101C4000DD49086008464068DC490840DA494860D8
:101C500008460068DA490840D74908600846006825
:101C600020F4802008600846406820F4FE004860A8
:101C70004FF41F0088607047CF49096821F4803114
:101C8000CD4A11601146096821F480211160B0F538
:101C9000803F03D0B0F5802F0ED106E0C649096819
:101CA00041F48031C44A116007E0C349096841F436
:101CB000A021C14A116000E000BF00BF704710B50D
:101CC00001460022002300204A11012A02D1BA4C09
:101CD000236806E0022A02D1B74C236A01E0B64C21
:101CE000636A01F01F02012494401C400CB10120E2
:101CF00000E0002010BD38B5002000900024002531
:101D000000BF3120FFF7DBFF05460098401C009024
:101D10000098B0F5A06F01D0002DF2D03120FFF770
:101D2000CEFF08B1012400E00024204638BD014662
:101D30000020A14A106820F0F80040EAC1001060BD
:101D40007047A04908607047024600209A4B5868C7
:101D500020F47C1042EA01031843974B5860704707
:101D600098490866704701460020934A506820F061
:101D700003000843506070478F48406800F00C0033
:101D80007047014600208C4A506820F0F00008435C
:101D90005060704701460020874A506820F4E06098
:101DA00008435060704701460020834A506820F481
:101DB000605040EAC1005060704729B17E4A527AB3
:101DC00002437D4B5A7204E07B4A527A82437A4B3B
:101DD0005A7270477B49D83108607047014600202D
:101DE000754A506820F44040084350607047002115
:101DF000714A20321170704A82F82010012802D0F6
:101E000004280AD104E001216B4A2032117005E058
:101E10000521694A2032117000E000BF00BF704701
:101E20006949086070476449096A0143624A11625E
:101E30007047654944390860704730B50021002279
:101E4000002400235C4D6D6805F00C0121B10429CC
:101E500005D0082923D105E05C4D056022E05B4DEB
:101E600005601FE0544D6D6805F47012524D6D68A9
:101E700005F48034022505EB92421CB9544D5543BC
:101E800005600BE04C4D6D6805F400351DB1504DFB
:101E90005543056002E04D4D5543056002E04B4D52
:101EA000056000BF00BF444D6D6805F0F0010909F1
:101EB000484D6B5C0568DD4045603F4D6D6805F43D
:101EC000E061090A434D6B5C4568DD4085603A4D31
:101ED0006D6805F46051C90A3E4D6B5C4568DD4094
:101EE000C560354D6D6805F44041890B3A4D6B5C1A
:101EF000C568B5FBF3F5056130BD29B12E4A5269BD
:101F000002432D4B5A6104E02B4A526982432A4B0B
:101F10005A61704729B1284A92690243264B9A6157
:101F200004E0254A92698243234B9A61704729B1A4
:101F3000214AD2690243204BDA6104E01E4AD26989
:101F400082431D4BDA61704729B11B4AD2680243B4
:101F5000194BDA6004E0184AD2688243164BDA6003
:101F6000704729B1144A12690243134B1A6104E005
:101F7000114A12698243104B1A6170471249403965
:101F8000086070470F49C86470470B49C8717047B3
:101F90000948406A40F0807007494862704701462E
:101FA0000020054A92680A400AB1012000E00020A2
:101FB0007047014988727047001002400000FFF826
:101FC000FFFFF6FE000042428004424200127A0007
:101FD00000093D00620000207200002010B5044698
:101FE000FB48844209D101218803FFF7ADFF00219E
:101FF0004FF48040FFF7A8FF32E0F648844209D151
:1020000001214804FFF7ADFF00214FF40030FFF736
:10201000A8FF25E0F048844209D101218804FFF798
:10202000A0FF00214FF48020FFF79BFF18E0EB4852
:10203000844209D10121C804FFF793FF00214FF426
:102040000020FFF78EFF0BE0E548844208D1012114
:102050000805FFF786FF00214FF48010FFF781FF8E
:1020600010BD2DE9F04786B005460E460024A24675
:1020700000BFA1460027B08900B100BF2F462C8ABF
:102080004CF6FF700440F08804432C82AC894EF675
:10209000F3100440B0883189084371890843044330
:1020A000AC81AC8A4FF6FF400440B0890443AC8257
:1020B00001A8FFF7C2FEC648874202D1DDF810A092
:1020C00001E0DDF80CA0A88900F4004040B10AEB63
:1020D000CA0000EB0A1031684900B0FBF1F807E0D4
:1020E0000AEBCA0000EB0A1031688900B0FBF1F876
:1020F0006420B8FBF0F004012009642101FB108981
:10210000A88900F4004040B1322000EBC900B0FBC8
:10211000F1F000F00700044308E0322000EB091062
:102120006421B0FBF1F000F00F0004432C8106B0F5
:10213000BDE8F0874FF41651016000218180C18015
:1021400001810C21418100218181704710B5024637
:102150000020108A4FF2FF0318400B884C8823435D
:102160008C882343CC8823431843108210BD002160
:10217000018041808180C180704721B1828942F411
:102180000052828104E082894DF6FF731A408281F9
:102190007047F0B50346002400260025002040F6D5
:1021A0006A17B94200D100BF1846C1F3421401F0CA
:1021B0001F06012707FA06F5012C01D10C3004E0B7
:1021C000022C01D1103000E014301AB107682F43FF
:1021D000076002E00768AF430760F0BD1AB1838A69
:1021E0000B43838202E0838A8B4383827047028A97
:1021F0004FF6F0731A400282028A0A430282704745
:1022000082894FF2FF731A40828182890A43828158
:10221000704721B1828942F00202828104E0828902
:102220004FF6FD731A4082817047028A4FF6DF73C2
:102230001A400282028A0A430282704721B1028A4E
:1022400042F48042028204E0028A4BF6FF731A4095
:1022500002827047C1F30802828070470146888875
:10226000C0F308007047818941F001018181704706
:10227000028BD2B20283028B42EA012202837047B0
:10228000028B02F47F420283028B0A43028370476F
:1022900021B1828A42F02002828204E0828A4FF6D3
:1022A000DF731A408282704721B1828A42F01002A5
:1022B000828204E0828A4FF6EF731A40828270476E
:1022C00021B1828A42F00802828204E0828A4FF6BB
:1022D000F7731A408282704721B1828942F400422A
:1022E000828103E08289C2F30E028281704721B1AC
:1022F000828A42F40062828204E0828A4FF2FF7393
:102300001A4082827047828A4FF6FB731A4082829B
:10231000828A0A438282704721B1828A42F0020295
:10232000828204E0828A4FF6FD731A4082827047EF
:1023300002460020B1F5007F00D100BF13880B409A
:102340000BB1012000E00020704701F40072B2F5EB
:10235000007F00D100BFCA430280704770B50246BB
:10236000002400230025002040F66A16B14200D167
:1023700000BFC1F3421501F01F03012606FA03F363
:10238000012D02D19689334006E0022D02D1168A32
:10239000334001E0968A33400C12012606FA04F419
:1023A0001688344013B10CB1012000E0002070BD4C
:1023B00010B50022002340F66A14A14200D100BFEC
:1023C0000A1201249440A3B2DC43048010BD000033
:1023D000003801400044004000480040004C0040EC
:1023E0000050004010B50446FE48844208D1012147
:1023F000C014FFF7A9FD0021E014FFF7A5FDC4E01C
:10240000B4F1804F08D101210846FFF7AAFD002151
:102410000120FFF7A6FDB8E0F348844208D101216E
:102420000220FFF79EFD00210220FFF79AFDACE09D
:10243000EE48844208D101210420FFF792FD0021DB
:102440000420FFF78EFDA0E0E948844208D1012175
:102450000820FFF786FD00210820FFF782FD94E0A9
:10246000E448844208D101211020FFF77AFD0021C1
:102470001020FFF776FD88E0DF48844208D1012173
:102480002020FFF76EFD00212020FFF76AFD7CE091
:10249000DA48844208D101214014FFF755FD00219C
:1024A0006014FFF751FD70E0D548844209D1012145
:1024B000C804FFF749FD00214FF40020FFF744FD59
:1024C00063E0D048844209D101210805FFF73CFDB3
:1024D00000214FF48010FFF737FD56E0CA488442D0
:1024E00009D101214805FFF72FFD00214FF400100D
:1024F000FFF72AFD49E0C548844208D10121402068
:10250000FFF72FFD00214020FFF72BFD3DE0C048E5
:10251000844208D101218020FFF723FD0021802083
:10252000FFF71FFD31E0BB48844208D1012180152F
:10253000FFF717FD0021A015FFF713FD25E0B648B2
:10254000844209D101210804FFF7FEFC00214FF469
:102550008030FFF7F9FC18E0B048844209D101212E
:102560004804FFF7F1FC00214FF40030FFF7ECFCCA
:102570000BE0AB48844208D101218804FFF7E4FC5A
:1025800000214FF48020FFF7DFFC10BD00220288FD
:10259000944B98420ED0994B98420BD0B0F1804F9B
:1025A00008D0914B984205D0904B984202D0904B66
:1025B000984204D14FF68F731A404B881A438D4BC3
:1025C000984207D08C4B984204D04FF6FF431A40F4
:1025D000CB881A4302808B8883850B880385814BC7
:1025E00098420BD0854B984208D08B4B984205D02F
:1025F0008A4B984202D08A4B984201D10B7A0386CB
:1026000001238382704770B5002400220023058CCB
:102610004FF6FE7635400584028C8388048B4FF696
:102620008F752C40B51E2C400D882C43751E2A40FA
:102630000D892A434D882A436A4DA8420BD06F4D1D
:10264000A84208D0744DA84205D0744DA84202D0CB
:10265000734DA84213D14FF6F7752A404D892A438E
:102660004FF6FB752A408D882A434FF6FF652B40B5
:102670004FF6FF552B408D892B43CD892B4383800B
:102680000483CD888586028470BD70B50024002245
:102690000023058C4FF6EF7635400584028C838845
:1026A000048B48F6FF752C404FF6FF452C400D88F3
:1026B0004FF6FF7606EA05252C434FF6DF752A40D4
:1026C0000D8906EA05152A434D8806EA05152A43B1
:1026D000444DA84202D0494DA8421DD14FF67F7506
:1026E0002A404D894FF6FF7606EA05152A434FF634
:1026F000BF752A408D8806EA05152A434FF6FF3537
:102700002B404FF2FF752B408D8906EA85052B4340
:10271000CD8906EA85052B4383800483CD88058710
:10272000028470BD70B5002400220023058C4FF692
:10273000FF6635400584028C8388848B4FF68F7545
:102740002C404FF6FC752C400D882C434FF6FF555E
:102750002A400D894FF6FF7606EA05252A434D8863
:1027600006EA05252A431F4DA84202D0234DA84260
:102770001DD14FF2FF752A404D894FF6FF7606EACC
:1027800005252A434FF6FF352A408D8806EA0525A0
:102790002A434EF6FF752B404DF6FF752B408D8971
:1027A00006EA05152B43CD8906EA05152B438380E0
:1027B0008483CD888587028470BD70B50022002394
:1027C0000024058C4EF6FF7635400584038C848802
:1027D000828B48F6FF752A404FF6FF452A400D8848
:1027E00020E00000002C01400004004000080040F0
:1027F000000C004000100040001400400034014074
:10280000004C0140005001400054014000180040BD
:10281000001C0040002000400040014000440140F6
:10282000004801404FF6FF7606EA05252A434DF69B
:10283000FF752B400D8906EA05352B434D8806EAC6
:1028400005352B43FA4DA84202D0FA4DA84208D1D3
:102850004BF6FF752C408D894FF6FF7606EA8515FD
:102860002C4384808283CD88A0F84050038470BDBF
:10287000828B4FF2FF331A408283828B4FF6FF73B5
:1028800003EA01231A4382837047F0B50C461546CC
:10289000002200210026078C4EF6FF7C07EA0C0779
:1028A0000784828B018C4FF6FF7707EA043640F6E7
:1028B000FF473A404FF6FF7707EA05273A434FF6BE
:1028C000FF7707EA03373A43D94FB8420ED0D94FC2
:1028D000B8420BD0B0F1804F08D0D74FB84205D0E6
:1028E000D64FB84202D0D64FB84206D14DF6FF7748
:1028F000394046F48057394305E047F6FF573940E1
:1029000044F48057394382830184F0BD828B4FF6B3
:10291000F3731A408283828B0A4382837047F0B537
:102920000C461546002200210026078C4FF6FF6C4E
:1029300007EA0C070784828B018C4FF6FF7707EAC2
:1029400004264FF60C773A404FF6FF7707EA031755
:102950002F433A43B64FB8420ED0B64FB8420BD0D1
:10296000B0F1804F08D0B44FB84205D0B34FB84251
:1029700002D0B34FB84206D14FF6FF57394046F464
:102980008077394305E04FF2FF57394044F48077B0
:10299000394382830184F0BD028B4FF2FF331A402A
:1029A0000283028B4FF6FF7303EA01231A4302836B
:1029B0007047F0B50C461546002200210026078C12
:1029C0004FF6EF7C07EA0C070784028B018C4FF669
:1029D000FF7707EA041640F6FF473A404FF6FF77C5
:1029E00007EA03373A434FF6FF7707EA05273A43EA
:1029F0008F4FB8420ED08F4FB8420BD0B0F1804FFE
:102A000008D08D4FB84205D08C4FB84202D08C4FC1
:102A1000B84206D14FF6DF77394046F01007394308
:102A200005E04FF65F77394044F0100739430283E1
:102A30000184F0BD028B4FF6F3731A400283028BC0
:102A40000A4302837047F0B50C4615460022002168
:102A5000068C4FF6FE773E400684028B018C4FF6C3
:102A60000C7632407E1C06EA03162E433243704E2B
:102A7000B0420ED06F4EB0420BD0B0F1804F08D0B4
:102A80006D4EB04205D06D4EB04202D06C4EB04299
:102A900006D14FF6FD76314044F00106314305E0A2
:102AA0004FF6F576314044F001063143028301844C
:102AB000F0BD70B505460C465D4885420ED05D48B8
:102AC00085420BD0B5F1804F08D05B48854205D0D8
:102AD0005A48854202D05A48854200D100E000BFE2
:102AE000208850B92389A28861882846FFF7ABFF68
:102AF000E1882846FFF79EFF25E0208804280AD1B8
:102B00002389A28861882846FFF753FFE188284679
:102B1000FFF742FF17E0208808280AD12389A288FE
:102B200061882846FFF7FBFEE1882846FFF7EEFEA6
:102B300009E02389A28861882846FFF7A6FEE1887C
:102B40002846FFF795FE70BD2DE9F04105460C467D
:102B500000260127608808B9022600E00026A08828
:102B6000012801D1022700E001272088A0B923898C
:102B7000A28861882846FFF766FFE1882846FFF7AC
:102B800059FF23893A4631462846FFF712FFE1886C
:102B90002846FFF701FF13E02389A28861882846B1
:102BA000FFF707FFE1882846FFF7F6FE23893A463C
:102BB00031462846FFF747FFE1882846FFF73AFFEE
:102BC000BDE8F0810A884B881A438B881A43CB886A
:102BD0001A430B891A434B891A438B891A43A0F86D
:102BE000442070474FF6FF71818000210180C18031
:102BF0004180017270470021018041808180C18045
:102C0000018141818181C181704700210180418022
:102C1000012181800021C180018170470021018054
:102C200041808180C18001814181818170470000A4
:102C3000002C014000340140000400400008004026
:102C4000000C004021B1028842F00102028004E041
:102C500002884FF6FE731A400280704731B1B0F817
:102C6000442042F40042A0F8442005E0B0F844209B
:102C7000C2F30E02A0F8442070471AB183890B43B7
:102C8000838102E083898B4383817047818270470F
:102C900041EA0203A0F8483070471AB183890B4318
:102CA000838102E083898B438381704701894FF6DA
:102CB000F8721140018170470A46002101894FF6E0
:102CC0008F73194011430181704730B504460D469A
:102CD00029462046FFF7F0FF208940F007002081B9
:102CE00030BD2DE9F04104460D4616461F46602DC5
:102CF00006D13B46012231462046FFF75AFE05E049
:102D00003B46012231462046FFF79DFE29462046DC
:102D1000FFF7D2FF208940F007002081BDE8F08155
:102D200030B50C4600210189C9B24FF6FF7505EA9E
:102D30000325154325432943018130BD2DE9F04189
:102D400005460E4617469846002443463A46314605
:102D50002846FFF7E5FF2C894FF6F870044044F051
:102D600007044FF68F70044044F070042C81BDE8D6
:102D7000F081F0B504460D4616461F463B463246E6
:102D800029462046FFF7CCFF208940F4804020816F
:102D9000F0BD0185828270470A46002101884FF606
:102DA0008F731940114301807047F0B50C461546EA
:102DB0001E460021002200230189028B038C4FF65E
:102DC000F877394021434FF6FC473A4040F201176B
:102DD0003A434FF6DD773B404FF6FF7707EA061799
:102DE0002F433B43018102830384F0BD0A46002147
:102DF000018B4FF68F7319401143018370470A46C8
:102E00000021018B48F6FF7319404FF6FF7303EA68
:102E100002231943018370470A460021818B4FF634
:102E20008F7319401143818370470A460021818BBB
:102E300048F6FF7319404FF6FF7303EA0223194364
:102E40008183704721B1028842F08002028004E051
:102E500002884FF67F731A400280704721B1828842
:102E600042F00402828004E082884FF6FB731A402D
:102E70008280704721B1828842F00802828004E09B
:102E800082884FF6F7731A408280704721B182889A
:102E900042F00102828004E082884FF6FE731A40FD
:102EA000828070470A460021018B4FF6F773194064
:102EB0001143018370470A460021018B4FF2FF73D3
:102EC00019404FF6FF7303EA022319430183704749
:102ED0000A460021818B4FF6F77319401143818315
:102EE00070470A460021818B4FF2FF7319404FF65D
:102EF000FF7303EA02231943818370470A460021C6
:102F0000018B4FF6FB7319401143018370470A464A
:102F10000021018B4FF6FF3319404FF6FF7303EA90
:102F200002231943018370470A460021818B4FF623
:102F3000FB7319401143818370470A460021818B3E
:102F40004FF6FF3319404FF6FF7303EA022319438C
:102F5000818370470A460021018B4FF67F73194029
:102F60001143018370470A460021018BC1F30E0112
:102F70004FF6FF7303EA02231943018370470A46A1
:102F80000021818B4FF67F73194011438183704775
:102F90000A460021818BC1F30E014FF6FF7303EA4D
:102FA00002231943818370470A460021018C4FF6A2
:102FB000FD7319401143018470470A460021018CBA
:102FC0004FF6F77319401143018470470A460021F8
:102FD000018C4FF6DF7319404FF6FF7303EA0213BB
:102FE0001943018470470A460021018C4FF67F7314
:102FF00019404FF6FF7303EA021319430184704727
:103000000A460021018C4FF6FF5319404FF6FF731B
:1030100003EA02231943018470470A460021018C08
:103020004FF2FF7319404FF6FF7303EA022319436F
:10303000018470470A460021018C4DF6FF73194048
:103040004FF6FF7303EA023319430184704730B52A
:10305000002301248C40A3B2048C9C430484048C80
:1030600002FA01F5ADB22C43048430BD30B5002323
:1030700004248C40A3B2048C9C430484048C02FA84
:1030800001F5ADB22C43048430BD70B50346002079
:1030900000241846183001258D40ACB21D8CA54384
:1030A0001D8409B1082909D100EB6100056825F0EC
:1030B000700505600568154305600EE00D1FC5F33A
:1030C0004E052844056825F4E045056005684FF67F
:1030D000FF7606EA02263543056070BD21B10288FD
:1030E00042F00202028004E002884FF6FD731A40AB
:1030F0000280704721B1028842F00402028004E09D
:1031000002884FF6FB731A400280704721B1828813
:1031100042F08002828004E082884FF67F731A407A
:103120008280704702884FF6F7731A400280028847
:103130000A430280704782884FF68F731A4082805C
:1031400082880A438280704702894FF6F8731A40DA
:10315000028102890A430281704702894FF67F7318
:103160001A40028102890A430281704781847047B4
:1031700081857047818670470187704781877047D6
:10318000A0F84010704702884FF6FF431A400280B3
:1031900002880A43028070470146888E70470146C4
:1031A000088F70470146888F70470146B1F840008C
:1031B00070470146888C70470146088D704702466B
:1031C0000020138A0B400BB1012000E00020704763
:1031D000CA430282704730B5024600200023002413
:1031E000158A05EA0103958905EA010413B10CB1BA
:1031F000012000E0002030BDCA4302827047000079
:1032000010B50446FA48844208D101214015FEF762
:103210009BFE00216015FEF797FE17E0F5488442FB
:1032200008D101210015FEF78FFE00212015FEF7C1
:103230008BFE0BE0F048844208D10121C803FEF761
:1032400083FE00214FF40040FEF77EFE10BD30B536
:103250000246002000235068E84C20400D790C689D
:1032600044EA0524204350609068E54C2040D1E9B1
:1032700002542C434D7944EA450420439060D06ABF
:1032800020F470000C7C641EE4B2234340EA035037
:10329000D06230BD00210160017141718160C16067
:1032A00001210174704721B1826842F001028260FD
:1032B00003E0826822F001028260704721B18268D7
:1032C00042F48072826003E0826822F4807282603D
:1032D000704710B50023CBB21AB144681C43446058
:1032E00002E044689C43446010BD816841F00801DD
:1032F00081607047014600208A6802F008020AB126
:10330000012000E000207047816841F004018160E5
:103310007047014600208A6802F004020AB10120C9
:1033200000E00020704721B1826842F4A002826070
:1033300003E0826822F4A002826070470146002008
:103340008A6802F480020AB1012000E00020704780
:1033500010B50A4600210023416821F46041531E44
:1033600041EA4331416010BD21B1426842F400623C
:10337000426003E0426822F4006242607047F0B5A8
:1033800004460D4600200021092D11DDE068A5F15D
:103390000A0606EB4607072606FA07F18843A5F159
:1033A0000A0606EB460603FA06F10843E0600CE065
:1033B000206905EB4507072606FA07F1884305EB68
:1033C000450603FA06F108432061072A0FDA606B0D
:1033D000561E06EB86071F2606FA07F18843561E7F
:1033E00006EB860605FA06F10843606322E00D2A23
:1033F0000FDA206BD61F06EB86071F2606FA07F1A9
:103400008843D61F06EB860605FA06F108432063BB
:1034100010E0E06AA2F10D0606EB86071F2606FA09
:1034200007F18843A2F10D0606EB860605FA06F1C0
:103430000843E062F0BD21B1826842F480128260EC
:1034400003E0826822F48012826070470146C86CF3
:1034500080B2704766484C300068704721B14268BE
:1034600042F48062426003E0426822F4806242607B
:10347000704721B1426842F48052426003E04268E2
:1034800022F48052426070470A460021816821F48C
:10349000E04111438160704721B1826842F40042EB
:1034A000826003E0826822F400428260704721B1AA
:1034B000826842F40212826003E0826822F40212FF
:1034C00082607047014600208A6802F400120AB147
:1034D000012000E000207047F0B5044615460020AA
:1034E00000220026092911DDE068A1F10A0707EB97
:1034F000470C072707FA0CF29043A1F10A0707EBE4
:10350000470703FA07F21043E0600CE0206901EB83
:10351000410C072707FA0CF2904301EB410703FA2D
:1035200007F210432061A06BC0F30156EF1C06F1B7
:10353000010CA7EB0C0707EB870C1F2707FA0CF20F
:103540009043EF1C06F1010CA7EB0C0707EB870774
:1035500001FA07F21043A063F0BD10B50A4600213E
:103560000023816B21F44011531E41EA0351816312
:1035700010BD08B5002300930090009B0B440093FE
:10358000009B1A6008BD08B502460020009000921A
:1035900001F12800009B184400900098006880B258
:1035A00008BD0A4600214168164B1940114341608D
:1035B00070474162826270470A460021416821F0EB
:1035C0001F0111434160704740B109490831096842
:1035D00041F40001064A0832116007E0044908314D
:1035E000096821F40001024A0832116070470000A6
:1035F0000024014000280140003C0140FFFEF0FF94
:10360000FDF7F1FFFFFD3FFF0246002013680B406E
:103610000BB1012000E000207047CA4302607047F0
:1036200070B502460020002300240B125568CEB26C
:1036300005EA060415681D4015B10CB1012000E033
:10364000002070BD00220A12D343036070470000BF
:1036500070B5044600252648008800F4004058B1A3
:10366000002023490988C1F30E01224A5054214603
:10367000104600F0F7FB0546284670BD2DE9F041E5
:1036800004460E4615460027002019490880FF2CE5
:103690000AD800BF1848008800F040000028F9D080
:1036A0001549091D0C8003E0214614A0FDF708FB15
:1036B000DEB1D5B112E00A20FDF7C3FF0C48008847
:1036C00000F4004050B13046FFF7C2FF18B10020AF
:1036D0000749088006E0002005490880681E80B27E
:1036E000051EE8D100BF05B901273846BDE8F081C5
:1036F000460000207C0000200048004025730D0A91
:103700000000000008B5DDA000F02CFF012104201E
:10371000FEF700FC01210846FEF7FCFB0121DB4817
:10372000FEF70DFA4FF40040ADF8000010208DF8C0
:10373000030003208DF802006946D548FEF72EF9F4
:103740000120D44908601020ADF8000028208DF831
:10375000030003208DF802006946CD48FEF71EF9EC
:103760004FF4E130FDF753FA08BD1CB50020CA49FB
:1037700008600FE00A22C9A1CAA0FFF77FFF00B9C5
:103780000FE0CA480068C043C949C1F894016420E9
:10379000FDF757FF0522C7A1C2A0FFF76FFF002862
:1037A000E8D100BF0522C5A1C5A0FFF767FF10B98A
:1037B000C4A000F0D7FEC5A2C7A1CA4800F0E2FE2F
:1037C0000A22BEA1C748FFF759FF20B9C549C6A0C4
:1037D00000F0C8FE03E0C349C6A000F0C3FEBBA2D0
:1037E000C7A1C04800F0CEFE0A22B4A1BD48FFF731
:1037F00045FF20B9BB49BCA000F0B4FE03E0B949C5
:10380000BCA000F0AFFE0622C0A1B64800F0BAFE90
:103810000A22AAA1B348FFF731FF20B9B149B2A0EB
:1038200000F0A0FE03E0AF49B2A000F09BFE012033
:10383000002108234FF4E132CDE90010B6A1A948D8
:1038400000F0A0FE0A229DA1A648FFF717FF20B9AD
:10385000A449A5A000F086FE03E0A249A5A000F0BF
:1038600081FE0522B1A19F4800F08CFE0A2293A19F
:103870009C48FFF703FF20B99A499BA000F072FE15
:1038800003E098499BA000F06DFE0A228BA1ABA03B
:10389000FFF7F4FE18B9AEA000F064FE02E0B2A09B
:1038A00000F060FE0A2285A1B6A0FFF7E7FE18B976
:1038B000B7A000F057FE02E0BAA000F053FE0A22C3
:1038C0007EA1BEA0FFF7DAFE18B9C1A000F04AFE43
:1038D00002E0C6A000F046FE0A2278A1CBA0FFF7C6
:1038E000CDFE18B9CDA000F03DFE02E0D0A000F062
:1038F00039FE5322D4A17B4800F044FE0A226FA176
:103900007848FFF7BBFE20B9764977A000F02AFE81
:1039100003E0744977A000F025FE01205E490860AD
:103920001CBD10B5CBA0FDF7CBF9CCA000F01AFE62
:1039300010BD10B5CFA000F015FE0020554908605D
:103940000120FDF77EFE0120CF49C1F8BC01FDF743
:1039500078FE10BD10B504462246CC480178CCA0B4
:10396000FDF7AEF9C94802782146CEA000F0FAFD75
:10397000C6480078401CC5490870084600780628EB
:1039800001D10020087010BD70B500250024CD487D
:10399000008800F40040002839D0CA480088C0F3ED
:1039A0000E040020C8490855C6490880C7A000F089
:1039B000D9FD00BF0DE000BF4021C548FEF7B8FCAF
:1039C0000028F9D0C048415DC148FEF743FC681C9F
:1039D00085B2A542EFDBBFA1BB4800F043FA28B196
:1039E000082C03D100202C49086009E0BCA1B6488E
:1039F00000F038FA20B1092C02D1012026490860D4
:103A00002146B14800F023FA5DA000F0ABFD70BD87
:103A100070B5054600260024B4A000F0A3FD1D48A3
:103A2000AC38006818B12846FFF794FF02E0B4A054
:103A300000F098FD1748006810B9FFF77AFF01E021
:103A4000FFF76FFF601CC4B2142C06D10024174886
:103A50000068C0431649C1F894010A20FDF7F1FD42
:103A6000ACA000F07FFD70BD10B50446AEA000F024
:103A700079FD2046FFF7CCFF10BD0000626C655F4A
:103A8000696F5F696E69740D0A0000000002300002
:103A900000080140BC012142948121424552524F0D
:103AA000520000002B2B2B610000000094012342E8
:103AB00000002342612B6F6B000000004F4B0000A1
:103AC000415400004154204F4B0D0A0041544B2DEE
:103AD000424C45303100000041542B4E414D453D94
:103AE0002573000034090020257320204F4B0D0A58
:103AF00000000000257320204552524F520D0A004D
:103B000041542B48454C4C4F3D25730041542B5498
:103B1000504C3D256400000041542B554152543D0A
:103B200025642C25642C25642C25640041542B41EC
:103B3000445054494D3D25640000000041542B4C35
:103B4000494E4B50415353454E3D4F4646000000B1
:103B500041542B4C494E4B50415353454E3D4F46DB
:103B60004620204F4B0D0A0041542B4C494E4B50E0
:103B7000415353454E3D4F464620204552524F52E9
:103B80000D0A000041542B4C4544454E3D4F4E001C
:103B900041542B4C4544454E3D4F4E20204F4B0D3C
:103BA0000A00000041542B4C4544454E3D4F4E20E9
:103BB000204552524F520D0A0000000041542B5331
:103BC0004C415645534C454550454E3D4F464600A9
:103BD00041542B534C415645534C454550454E3D61
:103BE0004F464620204F4B0D0A00000041542B53F6
:103BF0004C415645534C454550454E3D4F46462059
:103C0000204552524F520D0A0000000041542B4DE6
:103C100041585055543D4F464600000041542B4DED
:103C200041585055543D4F464620204F4B0D0A00F9
:103C300041542B4D41585055543D4F464620204548
:103C400052524F520D0A000041542B4D4F44453DF6
:103C50002563000031323334350000000D0A554130
:103C600052542057616B655F55703A3132333435A9
:103C70000D0A00000D0A574B55502057616B655FC8
:103C800055700D0A0000000000002142760000205F
:103C9000636E743A256420646174613A256C642013
:103CA0000D0A0000533A2041544B2D424C4530310F
:103CB00020444154413A256C6420636E743A256473
:103CC0000D0A0000460000207C000020523A00004F
:103CD000003801402B4C4544303A4F4E0000000064
:103CE0002B4C4544303A4F46460000000D0A424CEA
:103CF000452050524F43205354415254210D0A0045
:103D0000434845434B20424C4520535441544521A0
:103D1000000000000D0A424C452050524F432053F2
:103D2000544F50210D0A00000D0A41544B2D424CB6
:103D300045303120544553540D0A0D0A000000004F
:103D400000B587B001214FF40570FEF7E3F84FF49A
:103D50000040FEF743F80220ADF8040000208DF883
:103D6000070001A93348FDF719FE0320ADF8040050
:103D700000208DF8070001A92F48FDF70FFE2F48FE
:103D8000FFF73EFA002002908DF80C008DF80D0030
:103D90004FF4602004900020059001208DF8180059
:103DA00002A92648FFF753FA01212448FFF77BFABE
:103DB0002248FFF79AFA00BF2048FFF79BFA002835
:103DC000FAD11E48FFF7A0FA00BF1C48FFF7A1FA7E
:103DD0000028FAD107B000BD10B504460723012220
:103DE00021461648FFF7CBFA01211448FFF79BFA4A
:103DF00000BF02211148FFF707FC0028F9D00F4847
:103E0000FFF724FB10BD2DE9F04107460C460025C5
:103E1000002608E03846FFF7DFFF05440120FDF7E4
:103E200010FC701CC6B2A642F4DBB5FBF4F080B205
:103E3000BDE8F0810008014000100140002401406D
:103E4000D2B201E000F8012B491EFBD270470022DC
:103E5000F6E710B513460A4604461946FFF7F0FF89
:103E6000204610BD30B505462A460B4612F8010B18
:103E700013F8014B08B1A042F8D01CB1002802D0C1
:103E80006D1CF1E7284630BD421C10F8011B0029CB
:103E9000FBD1801A704780EA010210B502F000439E
:103EA000400022D04A001FD0010E01EB1261C0F386
:103EB0005600C2F3560240F4000042F40002A0FB98
:103EC000022000047F39140400D0401C50EA124044
:103ED00001D44000491EC2B20C0604EBD010401CB5
:103EE0004008802A02D003E0002010BD20F001002D
:103EF000002900DA0020184310BD30B480EA010226
:103F000002F0004530F0004221F0004013D090B1A3
:103F1000C30DD40DC2F31601C0F31600E41A41F428
:103F2000000140F400027D34914201D3641C00E0A2
:103F30004900002C02DA30BC002070474FF400002A
:103F40000023914201D3891A034340084FEA4101FB
:103F5000F7D151B1914202D14FF0004105E002D2B8
:103F60004FF0010101E06FF0010103EBC450284460
:103F700030BC00F0AFB92DE9FE4F804681EA030066
:103F8000C00F0C46009021F0004123F00045B8EB33
:103F90000200A94105D24046214690461C460B46E8
:103FA000024623F00040104347D0270DC7F30A0014
:103FB000C3F30A510290401A019040286BDAC3F310
:103FC000130040F4801B0098924620B10023D2EBEE
:103FD000030A63EB0B0B01985946C0F140025046AF
:103FE00000F047F906460D4650465946019A00F042
:103FF0005FF910EB08006141002487EA115284EA5E
:10400000E7731A4340D0009A62B3019A012A4FEA3B
:10401000075215DC001B61EB02014FF0004202EA7F
:104020000752CDE90042001C41F5801132462B4673
:1040300000F096F903B0BDE8F08F40462146F9E75D
:10404000001B61EB0201001C41F5801300185B416D
:104050002018A2F5001747EB030140EAD570B61906
:104060006D4111E06D084FEA360645EAC0754FEA2A
:104070000752001B61EB0201001C41F58011490849
:104080004FEA30000019514132462B4603B0BDE8DB
:10409000F04F00F056B90098012240000023D0EB09
:1040A000020263EBE073009821464FEAE074B8EB3C
:1040B000000061EB0401E9E783F000435BE781F076
:1040C000004158E72DE9F04D81EA030404F0004B6C
:1040D00021F0004514464FF0000A23F0004150EA59
:1040E000050220D054EA01021DD0C5F30A5702464A
:1040F000C5F31303C1F31300C1F30A5640F480154E
:1041000043F48013A7EB0608101BD64608F2FD38CF
:1041100073EB050002D308F1010801E092185B413E
:10412000B8F1000F03DA00200146BDE8F08D002051
:104130004FF48011064684460EE0171B73EB05070B
:1041400005D3121B63EB050306434CEA010C490837
:104150004FEA300092185B4150EA0107EDD152EA74
:10416000030012D082EA040083EA0501084305D067
:10417000101BAB4106D20122002306E000224FF0C3
:10418000004302E06FF0010253101AEB06004CEB03
:10419000085110EB0A0041EB0B01BDE8F04D00F0B7
:1041A000D0B8C10F80EAE0700844CA079623002106
:1041B00000F099B896230022114600F094B800F060
:1041C000004230F000400AD0C10D01F56071C0F32B
:1041D000160042EA0151C20840071143704700200F
:1041E0000146704730B50B460146002020220124CD
:1041F00009E021FA02F59D4205D303FA02F5491BB5
:1042000004FA02F52844151EA2F10102F1DC30BDCA
:104210002DE9F05F0546002092469B4688460646FB
:10422000814640241BE0284641464746224600F08E
:104230002FF853465A46C01A914110D311461846DA
:10424000224600F016F82D1A67EB01084F46224669
:104250000120002100F00DF817EB00094E41201E4F
:10426000A4F10104DFDC484631462A464346BDE856
:10427000F09F202A04DB203A00FA02F10020704768
:104280009140C2F1200320FA03F319439040704794
:10429000202A04DB203A21FA02F00021704721FA9B
:1042A00002F3D040C2F12002914008431946704702
:1042B000202A06DBCB17203A41FA02F043EAE073EA
:1042C00006E041FA02F3D040C2F1200291400843D7
:1042D000194670470029A8BF7047401C490008BF15
:1042E00020F00100704710B4B0FA80FC00FA0CF026
:1042F00050EA010404BF10BC704749B1CCF120045E
:1043000021FA04F411FA0CF118BF012121430843EA
:10431000A3EB0C01CB1D4FEA00614FEA102042BF16
:10432000002010BC704700EBC35010440029A4BF0C
:1043300010BC7047401C490008BF20F0010010BCB1
:10434000704710B5141E73F1000408DA401C41F1E7
:10435000000192185B411A4301D120F0010010BD09
:104360002DE9F04D92469B4611B1B1FA81F202E07F
:10437000B0FA80F220329046FFF77BFF04460F46EA
:1043800040EA0A0041EA0B0153465A46084313D05B
:10439000114653EA010019D0C8F140025046FFF718
:1043A00077FF05460E46504659464246FFF761FFE5
:1043B000084305D0012004E020463946BDE8F08DD1
:1043C0000020054346EAE0762C4337430A9863050C
:1043D000E40AA0EB08000022FD0A44EA47540A3030
:1043E00002D500200146E9E7010510196941DDE920
:1043F000084500196941BDE8F04DA2E72DE9FE4FDF
:1044000081EA030404F0004421F0004100944FF0DD
:10441000000B23F0004350EA01045ED052EA03048B
:104420005BD0C3F30A54C1F30A552C44A4F2F3340D
:104430000194A0FB0254C1F3130141F48011C3F3B2
:10444000130343F4801301FB024400FB034E840A70
:10445000970A44EA815447EA8357A4FB0768029508
:104460008D0A05FB07854FEA932C04FB0C542705A6
:10447000029D4FEA065847EA1637B5EB08056EEB82
:10448000070C870E920E47EA811742EA8312A7FBB8
:104490000201B6EB0B0164EB00042B0D43EA0C3375
:1044A0005E1844EB1C50DA465146E7FB0201C5F3A7
:1044B00013044FEA0B3343EA14534FEA0432019CCE
:1044C00043EA0603A4F10C040294009CCDE900B475
:1044D000FFF746FF03B0BDE8F08F00200146F9E783
:1044E000C1F30A52C1F3130140F2FF3341F48011CA
:1044F0009A4202DA00200146704740F233439A4262
:10450000A2F2334202DC5242FFF7C2BEFFF7B1BE55
:1045100030B5041E71F1000404DB4FF0004440424A
:1045200064EB0101141E73F1000405DB1C464FF01F
:104530000043524263EB0403994208BF904230BDEE
:10454000064C074D06E0E06840F0010394E80700E0
:1045500098471034AC42F6D3FBF7EEFD904E0008BE
:10456000B04E00080FB4054B10B503A9044A0298D9
:1045700000F000F910BC5DF814FB0000A116000863
:104580005C0000200FB4084B10B504A902AA0398E0
:1045900000F0F0F8044602A9002000F06EFC20466E
:1045A00010BC5DF814FB00007B4E000837B51446C4
:1045B0000846064B6A46214600F0DCF80446694688
:1045C000002000F05AFC20463EBD00007B4E000853
:1045D00002E008C8121F08C1002AFAD170477047CC
:1045E000002001E001C1121F002AFBD1704700002A
:1045F0002DE9FF5F82B00021DDE90430020DDDF816
:1046000040B0034318D044F61050A2F2FF324243A8
:104610001514119801281FD0A5EB0B00401C5FEA70
:10462000000A4FF000064E4FDFF83891B046504672
:1046300015D5CAF1000413E0119801244AA30128FA
:1046400001D16FEA0B010298119AC0E90031C0E96B
:10465000024206B0BDE8F09FCBF10000DFE7044660
:104660000021404A491842EB0450CDE9001012E005
:10467000E00707D032463B4640464946FFF7BEFEBC
:104680008046894632463B4610461946FFF7B6FE3D
:1046900006460F466410002CEAD1DDE90401DDE98D
:1046A0000023BAF1000F06DAFFF7A8FE42464B4698
:1046B000FFF7A4FE05E0FFF705FD42464B46FFF776
:1046C00001FD04460E460022284BFFF721FF03D8C8
:1046D0004FF0FF30014607E00022254B20463146CF
:1046E000FFF749FCFFF7FCFE102409E0002C0ADB71
:1046F0000A220023FFF78CFD039B30321A55641EFB
:1047000050EA0102F2D1641C039AC4F1110314446B
:10471000119A012A03D0012208430DD10AE008436F
:1047200004D000204FF0110B119072E7A3EB0B05A2
:104730006D1E0DE05B4504DD4FF0000205F1010543
:1047400004E003DA4FF00002A5F10105002AECD0E5
:1047500002981199C0E90231C0E9004579E70000EB
:10476000000014400000F03F300000000000F04363
:104770000000E03F2DE9FF4F95B09A468846064677
:104780000025EEE1252877D100242746F94A0121AA
:10479000039400E0044316F8013F203B01FA03F0C4
:1047A0001042F7D130782A2811D06FF02F033078DB
:1047B000A0F13002092A16D8039A44F0020402EB51
:1047C000820203EB42021044761C0390EFE758F894
:1047D000042B0392002A03DA504244F4005403905D
:1047E00044F00204761C30782E2816D116F8010FFA
:1047F00044F004042A280DD06FF02F023078A0F185
:104800003003092B09D807EB870302EB4303C718D2
:10481000761CF3E758F8047B761C30786C280FD0B0
:1048200006DC4C2817D068280DD06A2814D104E083
:10483000742810D07A280FD10DE044F400140AE057
:1048400044F4801401E044F440147278824202D1AE
:1048500004F58014761C761C307866280BD013DCA7
:10486000582877D009DC002875D04528F6D046288E
:10487000F4D047281AD193E118E0632835D0642892
:1048800079D0652812D18BE1702873D008DC6728B5
:10489000F1D069286FD06E280DD06F2806D1ACE01A
:1048A00073282CD0752874D0782853D05246179985
:1048B00090476D1C54E1C4F30250022809D003282C
:1048C0000DD0D8F8001004280DD00D6008F10408B0
:1048D00046E1D8F80010EA17C1E90052F6E7D8F827
:1048E00000100D80F2E70D70F0E718F8041B8DF84A
:1048F000001000208DF80100EB46012003E058F87D
:1049000004BB4FF0FF3061074FF0000102D40DE00F
:1049100009F101018946B9420FDA8145F8DB1BF83C
:1049200009100029F4D108E009F10101894681420A
:10493000FADB1BF809100029F6D103985346A0EBC7
:10494000090721463846179A00F080FA284400EB00
:10495000090507E044E008E10DE01BF8010B5246B1
:1049600017999047B9F10109F7D2534621463846C5
:10497000179AF2E039E00A21C4F302524FF0000B1B
:104980000091022A06D058F8040BC117032A09D057
:104990000AE023E008F1070020F00702F2E8020134
:1049A000904605E000B2C117042A01D140B2C117F8
:1049B000002906DA0A460021404261EB02012D225D
:1049C00002E0220504D52B228DF80420012203E009
:1049D000E20701D02022F7E7914657E00A2100E0E4
:1049E00010214FF0000B00910BE010214FF0000B55
:1049F00044F004040827009103E008204FF0000B66
:104A00000090C4F30252022A05D058F8040B00218A
:104A1000032A08D008E008F1070020F00702F2E8B6
:104A20000201904603E080B2042A00D1C0B24FF0E8
:104A3000000922072AD53278702A07D0DDF800C095
:104A40008CF0100C5CEA0B0C05D00EE040228DF8C7
:104A50000420012208E050EA010306D030238DF83B
:104A600004308DF8052002229146009B83F0080354
:104A700053EA0B030AD150EA010201D1620705D5BE
:104A800030228DF804204FF001097F1E3278582A19
:104A900004D039A20C920CAA02920BE03BA2F9E7D7
:104AA0005B46009AFFF7B4FB0C9B9B5C029A521E7C
:104AB0000292137050EA0102F2D1029804A9081A76
:104AC00000F1200B600702D524F4803400E00127B8
:104AD0005F4502DDA7EB0B0000E0002000EB0B01BF
:104AE000009003984944401A0390E00306D45346CB
:104AF0002146179A039800F0A9F90544002706E01B
:104B000001A85246C05D179990476D1C7F1C4F4508
:104B1000F6DBE0030CD553462146179A039800F0C4
:104B200095F9054404E030205246179990476D1CD2
:104B30000099481E00900029F5DC08E002980299CF
:104B400052460078491C0291179990476D1CBBF1A1
:104B50000001ABF1010BF1DC5BE100F065F905440C
:104B6000761C307800287FF40DAE19B02846BDE8D9
:104B7000F08F0000092801003031323334353637E8
:104B80003839616263646566000000003031323399
:104B90003435363738394142434445460000000039
:104BA000600700D4062708F1070020F00700F0E8AE
:104BB0000223804603F0004C5FEA0C0001D097A06E
:104BC00009E0200501D596A005E0E00701D095A0F9
:104BD00001E0AFF24C001390307823F000436528D9
:104BE0000CD006DC452809D046281DD047287FD1A7
:104BF0003BE0662818D067287AD136E00021112FD3
:104C000001DB112000E0781CCDE9000104A90CA80B
:104C1000FFF7EEFCDDE90D010C9A4FF0000B07F1F8
:104C20000109109200914EE04FF000400097CDE94D
:104C3000011004A90CA8FFF7DBFCDDE90D020C9BB9
:104C40000F994FF0000B91461093009211B9791C07
:104C500000EB0109B7EB090003D4C0F1FF3B07F1FA
:104C60000109A9EB0700019042E0012F00DA0127BA
:104C70000021112F01DD112000E03846CDE90001AF
:104C800004A90CA8FFF7B4FCDDE90D010C9A009112
:104C90004FF0000BB946109221070FD4009A4A45F5
:104CA00003DA914601E0A9F10109B9F1010F05DD2F
:104CB000109AA9F10101515C3029F4D0B84202DA0E
:104CC00010F1040F03DA0121CDE9011010E00028F2
:104CD00003DC8344A9EB000102E0411C494500DDEF
:104CE0008946A0EB0B00401C01904FF00040029061
:104CF000200705D40198484502DB4FF0FF300190B2
:104D000000208DF84B0002980DF14B07B0F1004FD9
:104D100025D002200C902B200D90029800280CDA50
:104D2000404202902D200D9007E00A210298FFF7E3
:104D300059FA3031029007F8011D0C99481E0C9069
:104D40000029F2DC02980028EFD1791E0D98087036
:104D5000307800F0200040F0450007F8020D11A85F
:104D6000C01BC01D02901398007800B1012000EB19
:104D70000901019801EBE071029801440398401A7F
:104D8000401E0390E00306D453462146179A039829
:104D900000F05CF805441398007818B15246179952
:104DA00090476D1CE00323D553462146179A03987C
:104DB00000F04CF805441BE0BBF1000F07DB009846
:104DC000584504DD1098179910F80B0001E0179969
:104DD00030205246904701980BF1010B401E05F11F
:104DE0000105019004D12E205246179990476D1C61
:104DF000B9F10001A9F10109DEDC05E017F8010BAA
:104E00005246179990476D1C0299481E029000293E
:104E1000F4DC53462146179A03989EE62D000000C5
:104E20002B000000200000002DE9F0410446002581
:104E30001E461746880404D405E039462020B047B2
:104E40006D1C641EF9D52846BDE8F0812DE9F041BE
:104E5000044600251E469046C80301D5302700E0D1
:104E60002027880404D505E041463846B0476D1C2C
:104E7000641EF9D52846BDE8F0810A68531C0B6012
:104E800010707047FA00F401E803D007020408101C
:104E9000B04E0008000000207C000000D045000853
:104EA0002C4F00087C000020EC0C0000E0450008BE
:104EB00000000000000000000000000000000000F2
:104EC00000000000000000000000000000000000E2
:104ED00000000000000000000000000000000000D2
:104EE00000A24A04000000000000000001020304C8
:104EF0000607080901000000000000000000000093
:104F000000000000000000000000000000000000A1
:104F10000000000000000102030401020304060770
:0C4F200008090204060800000000000060
:0400000508000131BD
:00000001FF
