:020000040800F2
:10000000A80F0020691600085D0600085F060008BA
:1000100063060008670600086B0600080000000081
:100020000000000000000000000000006F06000853
:10003000710600080000000073060008750600083D
:10004000831600088316000883160008831600082C
:10005000831600088316000883160008831600081C
:10006000831600088316000883160008831600080C
:1000700083160008831600088316000883160008FC
:1000800083160008831600088316000883160008EC
:1000900083160008831600088316000883160008DC
:1000A00083160008831600088316000883160008CC
:1000B00083160008831600088316000883160008BC
:1000C00083160008831600088316000883160008AC
:1000D00083160008DD1500081D140008510A0008E9
:1000E000831600088316000883160008831600088C
:1000F000831600088316000883160008831600087C
:10010000831600088316000883160008831600086B
:10011000831600088316000883160008C509000826
:10012000831600088316000883160008831600084B
:1001300000F002F800F090F80AA090E8000C824469
:100140008344AAF10107DA4501D100F085F8AFF246
:10015000090EBAE80F0013F0010F18BFFB1A43F0A5
:1001600001031847985A0000B85A0000103A24BFFB
:1001700078C878C1FAD8520724BF30C830C144BF0C
:1001800004680C607047000000230024002500264E
:10019000103A28BF78C1FBD8520728BF30C148BFEA
:1001A0000B6070476E2903F0DB87702904F05383DE
:1001B000662905F09984652905F09684672905F07C
:1001C0009384612905F0928403681B0A28BF41F0DB
:1001D0008001692903F00286642903F0FF857529EF
:1001E00003F0FC856F2904F0E182782904F01F8375
:1001F000E92904F07B82E42904F07882F52904F0EF
:100200007582EF2904F0DE82F82904F01E8303686A
:10021000DB0928BF41F08001632904F0EA817329DA
:1002200004F0EF81E32904F05B85F32904F0608595
:10023000002070471FB504F041FB0400002000219E
:1002400005F050FA401C60600020002105F034FAEF
:10025000E0601FBD10B510BD04F0E4FD1146FFF7CE
:10026000E9FF00F014F804F00BFE03B4FFF7F2FF0F
:1002700003BC01F059F9000070B50446049D601AF2
:10028000EE1A7043561A90FBF6F0184470BD86B013
:100290004FF0000B0020059001F0DCF84FF4A06057
:1002A00001F002FA03F0A0FC4FF4E13001F04AF94A
:1002B00000F0D2FA4FF4E13001F040F800F092FF84
:1002C00000F0F0FA03F072F903F0A3F922E1012142
:1002D00004A801F09AF868B19DF8100000F072FCD3
:1002E0000028F3D08C4840785528EFD18A4800F098
:1002F000E6FC0FE1012001F0EAF80598401C0590AA
:100300000A21012003F0C9FC8449088040F6E4403A
:10031000002340F6FF721946009080480088FFF7DE
:10032000ABFF7F49086008460068962803DA002082
:100330007C49086017E07A48006840F6E44188424A
:1003400004DD41F27070774908600CE041F2707092
:10035000142340F6E4429621009071480068FFF7AC
:100360008BFF704908606F4803686D4802686B48EE
:1003700001886DA003F0C0FC75A003F0BDFC7549B9
:10038000886805F0CBF904460D467249486805F0C7
:10039000C5F906460F466F49086805F0BFF9804663
:1003A00042460B466CA0CDE90067CDE9024503F05B
:1003B000A3FC7749086A05F0B1F98046894674497B
:1003C000C86905F0ABF904460D467149886905F026
:1003D000A5F9064632460B466EA08DE8300303F0C1
:1003E0008BFC6B49486905F099F904460D4668494C
:1003F000086905F093F906460F466549C86805F097
:100400008DF9804642460B4670A0CDE90067CDE9E4
:10041000024503F071FC002000F05EFA8246BAF15A
:10042000040F01D14FF0000B7648006800285CD023
:100430003C4803683A4802683848018872A000F0D6
:100440008FFB4449886805F069F904460D46414927
:10045000486805F063F906460F463E49086805F00E
:100460005DF9804642460B466AA0CDE90067CDE9BA
:10047000024500F075FB4649086A05F04FF904464D
:100480000D464349C86905F049F906460F464049FB
:10049000886905F043F9804642460B4663A0CDE9E2
:1004A0000067CDE9024500F05BFB3949486905F07A
:1004B00035F904460D463649086905F02FF9064618
:1004C0000F463349C86805F029F9804642460B4675
:1004D00050A0CDE90067CDE9024500F041FB1CA02A
:1004E00000F03EFB0BF1010B02E056A003F004FC10
:1004F0004448AC30006860B900204249AC31086023
:10050000012000F0E4FF01205349C1F8BC0100F0D4
:10051000DEFF00BFDBE600001C0700200400002017
:100520000C000020080000204144D6B5203D2025C5
:10053000642CB5E7D1B9203D202564206D762CD1FF
:10054000B9C1A6203D20256C6420670D0A0000007B
:100550000D0A0000C4060020D7CBCCACBDC75B5849
:10056000595A5D3A20202020252D362E3166202034
:10057000202020252D362E31662020202020252DDC
:10058000362E316620202028A1E3290D0A00000024
:10059000E0060020BCD3CBD9B6C85B58595A5D3AA7
:1005A00020202020252D362E3366202020202025B7
:1005B0002D362E33662020202020252D362E336622
:1005C0002020202867290D0A00000000BDC7CBD9D4
:1005D000B6C85B58595A5D3A20202020252D362E6A
:1005E00031662020202020252D362E316620202027
:1005F0002020252D362E316620202028A1E32F73C0
:10060000290D0A0010012142256420256420256C53
:1006100064200000252D362E316620252D362E3102
:100620006620252D362E316620000000252D362E21
:10063000336620252D362E336620252D362E336643
:1006400020000000434845434B20424C4520535472
:1006500041544521200D0A0000002142704700BF8F
:10066000FEE700BFFEE700BFFEE700BFFEE7704702
:1006700070477047704700000CB500200190009053
:100680006C48006840F480306A49086000BF6948DF
:10069000006800F4003000900198401C0190009820
:1006A00018B90198B0F5A06FF1D16248006800F464
:1006B000003010B10120009001E00020009000986F
:1006C000012843D15C48006840F010005A49086096
:1006D0000846006820F0030008600846006840F003
:1006E0000200086053484068524948600846406824
:1006F00048600846406840F48060486008464068AA
:1007000020F47C1048600846406840F4E8104860D7
:100710000846006840F08070086000BF45480068E7
:1007200000F000700028F9D04248406820F0030033
:10073000404948600846406840F00200486000BFF9
:100740003C48406800F00C000828F9D10CBD10B5F9
:10075000FFF792FF10BD10B53648006840F0010069
:1007600034490860084640683449084031494860C7
:1007700008460068324908402E490860084600686B
:1007800020F4802008600846406820F4FE0048609D
:100790004FF41F008860FFF7DAFF4FF0006029492F
:1007A000086010BD10B5002100200022214B5B68BD
:1007B00003F00C0121B1042906D0082928D107E053
:1007C000214B224C236027E01F4B204C236023E069
:1007D000184B5B6803F47010164B5B6803F48032AF
:1007E000022303EB904022B9194B4343174C23607B
:1007F0000DE0104B5B6803F4003323B1144B43430B
:10080000124C236003E0104B4343104C236003E081
:100810000D4B0E4C236000BF00BF064B5B68C3F35B
:1008200003130C4CE15C094B1B68CB40074C236065
:1008300010BD000000100240002002400000FFF840
:10084000FFFFF6FE08ED00E000127A001000002025
:1008500000093D001400002008B50121482001F0E6
:10086000ADFA2020ADF8000010208DF80300032021
:100870008DF802006946094800F0E4FF202107488E
:1008800001F08DF82020ADF800006946044800F022
:10089000D9FF2021024801F082F808BD000C014078
:1008A0000018014008B50121442001F087FA1C20FE
:1008B000ADF8000048208DF803006946354800F087
:1008C000C1FF0120ADF8000028208DF80300694623
:1008D000314800F0B7FF08BD10B5044614B101203F
:1008E0002E4908702D480078002837D0102129485B
:1008F00001F03BF878B10821264801F036F850B1F4
:100900000421244801F031F828B10121224801F0E6
:100910002CF8012822D10A2000F0D9FD00201F491F
:10092000087010211B4801F020F808B9012010BD03
:100930000821184801F019F808B90220F7E7042146
:10094000144801F012F808B90320F0E70121124819
:1009500001F00BF801281BD10420E8E710210D4815
:1009600001F003F8012813D108210A4800F0FDFF27
:1009700001280DD10421074800F0F7FF012807D115
:100980000121054800F0F1FF10B90120034908706A
:100990000020CCE70018014000080140240000209E
:1009A00010B504460021284802F034FB26482C30BC
:1009B0000088002024492C31088008460088204304
:1009C000088010BD10B501211F4802F058FB68B126
:1009D00001211D4802F064FB1C48008840F40040DF
:1009E0001A4908800021184802F080F810BD7FB530
:1009F00005460C460121202001F0EDF9ADF8045028
:100A0000ADF800400020ADF80600ADF802006946E0
:100A10000D4801F00FFD012211460B4802F081F84C
:100A20000121094802F062F837208DF80C000020FF
:100A30008DF80D0002208DF80E0001208DF80F00BA
:100A400003A800F036FE7FBD001400402600002001
:100A500010B540F22551544801F0D4FBF8B152488A
:100A600001F050FBC4B25148008800F40040B0B916
:100A70004E480088B0F5806F12DA00214C4802F031
:100A8000C9FA4A48008818B90121494802F02EF8ED
:100A900046490888411C454A118046490C5405E0E6
:100AA0004248008840F400404049088010BD1CB511
:100AB00004460121082001F081F90121880401F098
:100AC0008AF9394801F0DEF94FF48060ADF8000092
:100AD00003208DF8020018208DF80300694636487F
:100AE00000F0B0FE4FF40060ADF8000048208DF833
:100AF00003006946304800F0A5FE3048046000203D
:100B00002E498880C880088188810C204881264829
:100B100001F0FBF90121244801F083FA012240F29F
:100B20002551214801F089FA27208DF80400022080
:100B30008DF8050003208DF8060001208DF80700D0
:100B400001A800F0B6FD41F61F416320FFF74FFFFB
:100B50000020164908800021154801F0C7FF1CBD80
:100B60000FB438B505A800901548009A049903F011
:100B7000B1F800200090124803F042FA85B2002438
:100B80000DE000BF4021084801F026FB0028F9D005
:100B90000B48015D044801F0B1FA601C84B2AC421C
:100BA000EFDB38BC5DF814FB004800402600002055
:100BB000001400405C000020000C0140B40600203E
:100BC0005C0400200146FE480078062870D2DFE869
:100BD00000F0030D202B435C552904D10120F84A75
:100BE0001070F8480170F848017065E0552901D08F
:100BF000AF2905D10220F24A1070F248417002E09C
:100C00000020EF4A1070F04800780844EE4A107057
:100C100052E0EC4881700320E94A1070EA480078FD
:100C20000844E94A107047E01C2911DCE548C1700E
:100C30000020E64A1070002901DD042000E00520B4
:100C4000DF4A1070E04800780844DF4A107002E084
:100C50000020DB4A10702FE0DA48001DDB4A1278D2
:100C60008154DA480078401CD84A1070D648007881
:100C70000844D54A1070D348C078D44A12789042BC
:100C800002D10520CE4A107016E0CF480078884285
:100C900009D1CD480078CB4A82F820000020C84A0C
:100CA0001070012070470020C54A107004E0FFE773
:100CB0000020C34A107000BF00BF0020F2E72DE9FA
:100CC000F0410446A07801283CD16079000200B2CE
:100CD000217940EA0105284604F00EFE07464FF050
:100CE0008E4104F047FD0646B94904F031FEB9498A
:100CF0000860E079000200B2A17940EA01052846C7
:100D000004F0FAFD07464FF08E4104F033FD06462D
:100D1000AF4904F01DFEAF494860607A000200B29E
:100D2000217A40EA0105284604F0E6FD07464FF027
:100D30008E4104F01FFD0646A54904F009FEA549B1
:100D400088608BE1A078022840D16079000200B26F
:100D5000217940EA0105284604F0CEFD06464FF011
:100D60008E4104F007FD9C490860E079000200B262
:100D7000A17940EA0105284604F0BEFD06464FF081
:100D80008E4104F0F7FC94494860607A000200B29A
:100D9000217A40EA0105284604F0AEFD06464FF0F0
:100DA0008E4104F0E7FC8C498860E07A000200B2D2
:100DB000A17A40EA0105284604F09EFD06464FF060
:100DC0008E4104F0D7FC8449C86047E1A07803282D
:100DD0007DD16079000200B2217908437F49C88043
:100DE000E079000200B2A17908437C490881607A69
:100DF000000200B2217A084378494881E07A000273
:100E000000B2A17A084375490880607B000200B2F5
:100E1000217B084371494880E07B000200B2A17B3E
:100E200008436E4988806E4949786E4A505C04F0E8
:100E30007BFD06466949B1F9060004F05DFD0746F1
:100E40004FF08E4104F096FC0546314604F080FDDB
:100E50006249886162494978624A505C04F064FDE5
:100E600006465E49B1F9080004F046FD07464FF01A
:100E70008E4104F07FFC0546314604F069FD574978
:100E8000C86157494978574A505C04F04DFD064601
:100E90005249B1F90A0004F02FFD07464FF08E4188
:100EA00004F068FC0546314604F052FD4B490862E7
:100EB0004B4909784C4A32F8110004F035FD0646DA
:100EC0004649B1F9000004F017FD074600E03AE09A
:100ED0004FF08E4104F04EFC0546314604F038FDDB
:100EE0003E49C8603E4909783F4A32F8110004F093
:100EF0001BFD06463949B1F9020004F0FDFC074626
:100F00004FF08E4104F036FC0546314604F020FDDA
:100F10003249086132490978334A32F8110004F045
:100F200003FD06462D49B1F9040004F0E5FC07462F
:100F30004FF08E4104F01EFC0546314604F008FDDA
:100F4000264948618AE0A078042824D1607900020B
:100F500000B22179084325490880E079000200B2F7
:100F6000A179084321494880607A000200B2217AC1
:100F700008431E498880E07A000200B2A17A40EA64
:100F80000105284604F0B8FC0646194904F0F2FBB6
:100F90001649886062E0A078052844D1E07901060E
:100FA000A07941EA0041607941EA002021790843B3
:100FB00010490860E07A0106A07A41EA00411BE08E
:100FC000340000201C0700203500002036000020DF
:100FD00000003443C4060020D0060020E0060020B4
:100FE00030000020F85A0008F05A000804070020DA
:100FF0000000C84210070020607A41EA0020217AF0
:10100000084391494860607B000200B2217B40EABE
:101010000105284604F070FC06468C4904F0AAFB42
:10102000894988601AE0A078062817D1217960796B
:1010300041EA002086490880A179E07941EA002050
:1010400083494880217A607A41EA0020804988807B
:10105000A17AE07A41EA00207D49C880BDE8F081AC
:101060002DE9FC4107460C46154655208DF8000039
:10107000AF208DF801008DF802708DF80350E0B2BA
:101080008DF80400022D20D120128DF805009DF866
:1010900000009DF8011008449DF8021008449DF8D6
:1010A000031008449DF8041008449DF805100844F6
:1010B000C0B28DF80600002604E00DEB060000F03B
:1010C00096F9761C072EF8DB19E09DF800009DF8D4
:1010D000011008449DF8021008449DF803100844CC
:1010E0009DF804100844C0B28DF80500002604E005
:1010F0000DEB060000F07BF9761C062EF8DBBDE850
:10110000FC817CB5054655208DF80000AF208DF898
:10111000010045F080008DF8020001208DF80300E9
:1011200000208DF804009DF800009DF8011008448F
:101130009DF8021008449DF8031008449DF804101F
:101140000844C0B28DF80500002404E00DEB040053
:1011500000F04DF9641C062CF8DB7CBDF8B50646A2
:101160000C46002500BF0121684600F04EF900281A
:10117000F9D13046FFF7C5FF33E00121684600F0A2
:1011800044F928B39DF80000FFF71CFD48B331482F
:101190004078552803D12F48FFF791FD21E02D48D5
:1011A0004078AF281DD12B48C078012803D12948A9
:1011B000007920800AE02748C078022806D1254817
:1011C0000179407941EA002000B220800120F8BD79
:1011D000012000F07CF9681C85B2C82D01DD0020DB
:1011E000F5E7CAE708B5012203210846FFF738FFF3
:1011F000012211460420FFF733FF01220021084697
:10120000FFF72EFF69460320FFF7A8FFBDF8000097
:101210001149087069460420FFF7A0FFBDF80000DF
:101220000D49487069460520FFF798FFBDF800009A
:101230000949887069460620FFF790FFBDF8000055
:101240000549C87008BD0000100700200000C84212
:10125000280000201C070020300000200160828050
:101260000023C380038170470146C8880A899042E1
:1012700004DBC8880A89801A80B2704788880A8986
:10128000801ACA88104480B2F7E700B503461846B2
:10129000FFF7EAFF9988081A401E80B200BD014698
:1012A000C8880A89904201D1012070470020FCE7DC
:1012B00070B50B4600210CE05C5CC6880568AC5537
:1012C000C488641C858894FBF5F605FB1644C4802D
:1012D000491C9142F0DB70BDF0B505460E46144640
:1012E0002846FFF7D2FF0746A74201DA0120F0BDEA
:1012F000224631462846FFF7DBFF0020F7E7F0B52E
:1013000003460E4614461846FFF7AEFF0546A542B3
:1013100000DD254600200CE01A891968895C3154EB
:101320001989491C9A8891FBF2F702FB1711198160
:10133000401CA842F0DB2846F0BD000010B586B086
:1013400004460121042000F039FD0121480400F089
:1013500042FD0420ADF8140003208DF8160018207B
:101360008DF8170005A9374800F06CFA0820ADF891
:10137000140004208DF8170005A9324800F062FA25
:1013800026208DF8000000208DF801008DF8020065
:1013900001208DF80300684600F08BF901940020CD
:1013A000ADF80800ADF80A00ADF80C00ADF810007B
:1013B0000C20ADF80E0001A9234800F0A6FD012283
:1013C00040F22551204800F038FE01211E4800F06F
:1013D00028FE4FF480721D491D48FFF73FFF4FF470
:1013E00080721A491A48FFF739FF06B010BD10B5D0
:1013F00004462178144800F081FE00BF8021124885
:1014000000F0EAFE0028F9D010BD70B504460D4684
:101410002A4621460E48FFF772FF70BD08B540F21C
:101420002551094800F0EEFE50B1074800F06AFE71
:10143000C0B20090012269460548FFF74DFF00BF8A
:1014400008BD0000000801400044004040070020A3
:101450004008002010B56FF0040000F074F92E4829
:1014600000682E49B0FBF1F02D490870084600785D
:1014700000EB4001C1EBC0104FF6FF7101EAC00064
:101480002849088010BD0146254A12784A434FF08A
:10149000E0235A6100229A611A46126942F0010261
:1014A0001A6100BF4FF0E022106900F001021AB18A
:1014B00000F48032002AF5D04FF0E022126922F0C9
:1014C00001024FF0E0231A6100229A617047014641
:1014D000144A12884A434FF0E0235A6100229A616D
:1014E0001A46126942F001021A6100BF4FF0E02271
:1014F000106900F001021AB100F48032002AF5D020
:101500004FF0E022126922F001024FF0E0231A614D
:1015100000229A61704700001000002000127A003B
:10152000380000203A00002000BF704700BF4A4A40
:10153000128802F04002002AF9D0C2B2464B1B1DAD
:101540001A80704710B586B00446012144F20400A9
:1015500000F034FC4FF40070ADF8140003208DF857
:10156000160018208DF8170005A93C4800F06AF90C
:101570004FF48060ADF8140004208DF8170005A921
:10158000364800F05FF925208DF8000003208DF823
:1015900001008DF8020001208DF80300684600F07C
:1015A00088F801940020ADF80800ADF80A00ADF805
:1015B0000C00ADF810000C20ADF80E0001A9264873
:1015C00000F0A3FC012240F22551234800F035FD34
:1015D0000121214800F025FD06B010BD10B540F2F4
:1015E00025511D4800F00EFE10B31B4800F08AFD87
:1015F000C4B21B48008800F40040C8B918480088ED
:1016000000F4804060B10A2C03D000201449088007
:1016100020E01348008840F400401149088019E098
:101620000D2C06D10E48008840F480400C490880FB
:1016300010E00B480088C0F30D000A490C5408481C
:101640000088401C0649088008460088C72801DD3C
:101650000020088010BD0000003801400008014053
:10166000400000204C0800200948804709480047F6
:10167000FEE7FEE7FEE7FEE7FEE7FEE7FEE7FEE742
:10168000FEE7FEE704480549054A064B704700009F
:101690005707000831010008A8090020A80F002002
:1016A000A80B0020A80B002031490143314A1160EA
:1016B000704770B5002100230F22C47804B32D4C6D
:1016C000246804F4E064C4F5E064210AC1F1040371
:1016D000CA40447804FA03F1847814402143090194
:1016E000254C0678A155047804F01F050124AC4070
:1016F00005786D11AD0005F1E025C5F8004109E060
:10170000047804F01F050124AC401C4D06787611C6
:1017100045F8264070BD1A4A0A400243154B1B1F6C
:101720001A60704739B1134A121D12680243114BF7
:101730001B1D1A6006E00F4A121D126882430D4BF2
:101740001B1D1A607047042808D14FF0E021096979
:1017500041F004014FF0E022116107E04FF0E02179
:10176000096921F004014FF0E02211617047000087
:101770000000FA050CED00E000E400E080E100E08C
:1017800080FFFF1F10B50446CC48844208D10121D8
:10179000042000F02DFB0021042000F029FB46E08E
:1017A000C748844208D10121082000F021FB002114
:1017B000082000F01DFB3AE0C248844208D1012114
:1017C000102000F015FB0021102000F011FB2EE08E
:1017D000BD48844208D10121202000F009FB0021EE
:1017E000202000F005FB22E0B848844208D1012106
:1017F000402000F0FDFA0021402000F0F9FA16E048
:10180000B348844208D10121802000F0F1FA002180
:10181000802000F0EDFA0AE0AE48844207D10121B1
:10182000801500F0E5FA0021A01500F0E1FA10BDE6
:1018300010B50121084600F0DBFA0021012000F07C
:10184000D7FA10BD2DE9F041024600250026002000
:1018500000230024002791F803C00CF00F0591F835
:1018600003C00CF0100CBCF1000F03D091F802C0C3
:101870004CEA050591F800C0BCF1000F31D01468A6
:1018800000202BE04FF0010C0CFA00F3B1F800C07F
:101890000CEA03069E4220D183004FF00F0C0CFA95
:1018A00003F7BC4305FA03FC4CEA040491F803C0B7
:1018B000BCF1280F06D14FF0010C0CFA00FCC2F865
:1018C00014C00AE091F803C0BCF1480F05D14FF0F5
:1018D000010C0CFA00FCC2F810C0401C0828D1D33F
:1018E0001460B1F800C0BCF1FF0F34DD5468002073
:1018F0002EE000F1080C4FF0010808FA0CF3B1F8E3
:1019000000C00CEA03069E4221D183004FF00F0C69
:101910000CFA03F7BC4305FA03FC4CEA040491F803
:1019200003C0BCF1280F05D100F1080C08FA0CF82F
:10193000C2F8148091F803C0BCF1480F07D100F140
:10194000080C4FF0010808FA0CF8C2F81080401C8F
:101950000828CED35460BDE8F0814FF6FF710180B6
:10196000022181700421C1707047024600209368F3
:101970000B400BB1012000E0002070470146886851
:1019800080B2704702460020D3680B400BB10120A3
:1019900000E0002070470146C86880B270470161CE
:1019A0007047416170470AB1016100E041617047D1
:1019B000C16070474FF480320A4382618161826165
:1019C00082698269704702460020434B18684FF6CF
:1019D0008073184040EA021008433F4B186070477C
:1019E0003E49C8617047F0B50A4600230024002133
:1019F000002500F00046B6F1004F02D1364EF169E5
:101A000001E0354E7168C0F3034583B200F440161F
:101A1000B6F5401F08D121F070612F4E766826F090
:101A200070662D4F7E6012E000F48016B6F5801FC0
:101A300006D1032606FA05F4A14341F0706106E0E1
:101A4000460D360103FA06F6B14341F0706122B14A
:101A5000460D360103FA06F6314300F00046B6F1B2
:101A6000004F02D11C4EF16101E01B4E7160F0BDD0
:101A700030B500228B071C0F0F2303FA04F2164B1C
:101A800008338C1053F824309343134C08348D10D2
:101A900044F8253023468C1053F824308C07240F4B
:101AA00000FA04F423430C4C08348D1044F825301C
:101AB00030BD0A49DC310860704700000008014071
:101AC000000C0140001001400014014000180140CA
:101AD000001C0140002001400000014000002042A5
:101AE000DF48006840F00100DD49086008464068B2
:101AF000DC490840DA49486008460068DA4908408D
:101B0000D74908600846006820F48020086008462D
:101B1000406820F4FE0048604FF41F008860704762
:101B2000CF49096821F48031CD4A11601146096816
:101B300021F480211160B0F5803F03D0B0F5802FF3
:101B40000ED106E0C649096841F48031C44A1160EB
:101B500007E0C349096841F4A021C14A116000E0CF
:101B600000BF00BF704710B50146002200230020CF
:101B70004A11012A02D1BA4C236806E0022A02D196
:101B8000B74C236A01E0B64C636A01F01F020124DE
:101B900094401C400CB1012000E0002010BD38B57D
:101BA000002000900024002500BF3120FFF7DBFF5C
:101BB00005460098401C00900098B0F5A06F01D039
:101BC000002DF2D03120FFF7CEFF08B1012400E054
:101BD0000024204638BD01460020A14A106820F0AC
:101BE000F80040EAC10010607047A04908607047E3
:101BF000024600209A4B586820F47C1042EA010308
:101C00001843974B586070479849086670470146DB
:101C10000020934A506820F003000843506070474A
:101C20008F48406800F00C007047014600208C4A45
:101C3000506820F0F00008435060704701460020D3
:101C4000874A506820F4E0600843506070470146BE
:101C50000020834A506820F4605040EAC100506080
:101C6000704729B17E4A527A02437D4B5A7204E092
:101C70007B4A527A82437A4B5A7270477B49D831F9
:101C80000860704701460020754A506820F44040C3
:101C90000843506070470021714A20321170704A29
:101CA00082F82010012802D004280AD104E0012182
:101CB0006B4A2032117005E00521694A203211700B
:101CC00000E000BF00BF7047694908607047644981
:101CD000096A0143624A11627047654944390860E4
:101CE000704730B500210022002400235C4D6D6850
:101CF00005F00C0121B1042905D0082923D105E004
:101D00005C4D056022E05B4D05601FE0544D6D6841
:101D100005F47012524D6D6805F48034022505EB10
:101D200092421CB9544D554305600BE04C4D6D6813
:101D300005F400351DB1504D5543056002E04D4D91
:101D40005543056002E04B4D056000BF00BF444DA8
:101D50006D6805F0F0010909484D6B5C0568DD40D0
:101D600045603F4D6D6805F4E061090A434D6B5CC9
:101D70004568DD4085603A4D6D6805F46051C90ADB
:101D80003E4D6B5C4568DD40C560354D6D6805F4C2
:101D90004041890B3A4D6B5CC568B5FBF3F50561B5
:101DA00030BD29B12E4A526902432D4B5A6104E0DD
:101DB0002B4A526982432A4B5A61704729B1284AFB
:101DC00092690243264B9A6104E0254A9269824354
:101DD000234B9A61704729B1214AD2690243204BB3
:101DE000DA6104E01E4AD26982431D4BDA61704712
:101DF00029B11B4AD2680243194BDA6004E0184A41
:101E0000D2688243164BDA60704729B1144A1269CE
:101E10000243134B1A6104E0114A12698243104BCA
:101E20001A61704712494039086070470F49C86409
:101E300070470B49C87170470948406A40F080708C
:101E400007494862704701460020054A92680A40E7
:101E50000AB1012000E000207047014988727047F4
:101E6000001002400000FFF8FFFFF6FE00004242B3
:101E70008004424200127A0000093D004200002026
:101E80005200002010B50446FB48844209D10121CC
:101E90008803FFF7ADFF00214FF48040FFF7A8FF54
:101EA00032E0F648844209D101214804FFF7ADFF32
:101EB00000214FF40030FFF7A8FF25E0F0488442EE
:101EC00009D101218804FFF7A0FF00214FF48020F1
:101ED000FFF79BFF18E0EB48844209D10121C804B9
:101EE000FFF793FF00214FF40020FFF78EFF0BE078
:101EF000E548844208D101210805FFF786FF00214B
:101F00004FF48010FFF781FF10BD2DE9F04786B038
:101F100005460E460024A24600BFA1460027B08910
:101F200000B100BF2F462C8A4CF6FF700440F088A9
:101F300004432C82AC894EF6F3100440B0883189FA
:101F40000843718908430443AC81AC8A4FF6FF40D3
:101F50000440B0890443AC8201A8FFF7C2FEC64822
:101F6000874202D1DDF810A001E0DDF80CA0A889BD
:101F700000F4004040B10AEBCA0000EB0A103168DF
:101F80004900B0FBF1F807E00AEBCA0000EB0A10C9
:101F900031688900B0FBF1F86420B8FBF0F004016F
:101FA0002009642101FB1089A88900F4004040B198
:101FB000322000EBC900B0FBF1F000F00700044351
:101FC00008E0322000EB09106421B0FBF1F000F0D2
:101FD0000F0004432C8106B0BDE8F0874FF4165182
:101FE000016000218180C18001810C21418100219B
:101FF0008181704710B502460020108A4FF2FF031E
:1020000018400B884C8823438C882343CC88234377
:102010001843108210BD0021018041808180C18061
:10202000704721B1828942F40052828104E08289A2
:102030004DF6FF731A4082817047F0B503460024C5
:1020400000260025002040F66A17B94200D100BFE3
:102050001846C1F3421401F01F06012707FA06F5DE
:10206000012C01D10C3004E0022C01D1103000E031
:1020700014301AB107682F43076002E00768AF43C6
:102080000760F0BD1AB1838A0B43838202E0838A22
:102090008B4383827047028A4FF6F0731A400282A4
:1020A000028A0A430282704782894FF2FF731A4004
:1020B000828182890A438281704721B1828942F0FC
:1020C0000202828104E082894FF6FD731A40828108
:1020D0007047028A4FF6DF731A400282028A0A436F
:1020E0000282704721B1028A42F48042028204E0F7
:1020F000028A4BF6FF731A4002827047C1F308024E
:102100008280704701468888C0F308007047818943
:1021100041F0010181817047028BD2B20283028BB0
:1021200042EA012202837047028B02F47F4202835B
:10213000028B0A430283704721B1828A42F0200257
:10214000828204E0828A4FF6DF731A4082827047EF
:1021500021B1828A42F01002828204E0828A4FF624
:10216000EF731A408282704721B1828A42F00802DE
:10217000828204E0828A4FF6F7731A4082827047A7
:1021800021B1828942F40042828103E08289C2F354
:102190000E028281704721B1828A42F400628282FB
:1021A00004E0828A4FF2FF731A4082827047828A6B
:1021B0004FF6FB731A408282828A0A4382827047FA
:1021C00021B1828A42F00202828204E0828A4FF6C2
:1021D000FD731A408282704702460020B1F5007FED
:1021E00000D100BF13880B400BB1012000E000209C
:1021F000704701F40072B2F5007F00D100BFCA43FE
:102200000280704770B5024600240023002500209C
:1022100040F66A16B14200D100BFC1F3421501F089
:102220001F03012606FA03F3012D02D196893340DC
:1022300006E0022D02D1168A334001E0968A33402F
:102240000C12012606FA04F41688344013B10CB1BE
:10225000012000E0002070BD10B50022002340F6F0
:102260006A14A14200D100BF0A1201249440A3B213
:10227000DC43048010BD00000038014000440040F1
:1022800000480040004C00400050004010B504469B
:10229000FE48844208D10121C014FFF7A9FD0021A6
:1022A000E014FFF7A5FDC4E0B4F1804F08D101218F
:1022B0000846FFF7AAFD00210120FFF7A6FDB8E0C0
:1022C000F348844208D101210220FFF79EFD00213E
:1022D0000220FFF79AFDACE0EE48844208D10121CC
:1022E0000420FFF792FD00210420FFF78EFDA0E0FF
:1022F000E948844208D101210820FFF786FD00212A
:102300000820FFF782FD94E0E448844208D10121CF
:102310001020FFF77AFD00211020FFF776FD88E0FE
:10232000DF48844208D101212020FFF76EFD002103
:102330002020FFF76AFD7CE0DA48844208D10121C1
:102340004014FFF755FD00216014FFF751FD70E0C8
:10235000D548844209D10121C804FFF749FD002175
:102360004FF40020FFF744FD63E0D048844209D1D8
:1023700001210805FFF73CFD00214FF48010FFF715
:1023800037FD56E0CA48844209D101214805FFF7CC
:102390002FFD00214FF40010FFF72AFD49E0C5484A
:1023A000844208D101214020FFF72FFD0021402069
:1023B000FFF72BFD3DE0C048844208D10121802079
:1023C000FFF723FD00218020FFF71FFD31E0BB4810
:1023D000844208D101218015FFF717FD0021A015C7
:1023E000FFF713FD25E0B648844209D10121080416
:1023F000FFF7FEFC00214FF48030FFF7F9FC18E0F6
:10240000B048844209D101214804FFF7F1FC0021C2
:102410004FF40030FFF7ECFC0BE0AB48844208D1EE
:1024200001218804FFF7E4FC00214FF48020FFF72E
:10243000DFFC10BD00220288944B98420ED0994BCD
:1024400098420BD0B0F1804F08D0914B984205D004
:10245000904B984202D0904B984204D14FF68F7324
:102460001A404B881A438D4B984207D08C4B9842A8
:1024700004D04FF6FF431A40CB881A4302808B8862
:1024800083850B880385814B98420BD0854B9842FE
:1024900008D08B4B984205D08A4B984202D08A4B89
:1024A000984201D10B7A038601238382704770B56D
:1024B000002400220023058C4FF6FE76354005846B
:1024C000028C8388048B4FF68F752C40B51E2C40F0
:1024D0000D882C43751E2A400D892A434D882A43B6
:1024E0006A4DA8420BD06F4DA84208D0744DA84247
:1024F00005D0744DA84202D0734DA84213D14FF6B7
:10250000F7752A404D892A434FF6FB752A408D887E
:102510002A434FF6FF652B404FF6FF552B408D8920
:102520002B43CD892B4383800483CD888586028409
:1025300070BD70B5002400220023058C4FF6EF76A5
:1025400035400584028C8388048B48F6FF752C4047
:102550004FF6FF452C400D884FF6FF7606EA05251D
:102560002C434FF6DF752A400D8906EA05152A43EC
:102570004D8806EA05152A43444DA84202D0494D2C
:10258000A8421DD14FF67F752A404D894FF6FF7640
:1025900006EA05152A434FF6BF752A408D8806EADC
:1025A00005152A434FF6FF352B404FF2FF752B40A0
:1025B0008D8906EA85052B43CD8906EA85052B43DF
:1025C00083800483CD880587028470BD70B50024A4
:1025D00000220023058C4FF6FF6635400584028CEF
:1025E0008388848B4FF68F752C404FF6FC752C40FA
:1025F0000D882C434FF6FF552A400D894FF6FF7684
:1026000006EA05252A434D8806EA05252A431F4D7B
:10261000A84202D0234DA8421DD14FF2FF752A4097
:102620004D894FF6FF7606EA05252A434FF6FF351A
:102630002A408D8806EA05252A434EF6FF752B4071
:102640004DF6FF752B408D8906EA05152B43CD8984
:1026500006EA05152B4383808483CD888587028411
:1026600070BD70B5002200230024058C4EF6FF7665
:1026700035400584038C8488828B48F6FF752A4098
:102680004FF6FF452A400D8820E00000002C014055
:102690000004004000080040000C00400010004012
:1026A0000014004000340140004C01400050014043
:1026B0000054014000180040001C00400020004071
:1026C0000040014000440140004801404FF6FF76C1
:1026D00006EA05252A434DF6FF752B400D8906EACB
:1026E00005352B434D8806EA05352B43FA4DA842A4
:1026F00002D0FA4DA84208D14BF6FF752C408D89C7
:102700004FF6FF7606EA85152C4384808283CD88B8
:10271000A0F84050038470BD828B4FF2FF331A4003
:102720008283828B4FF6FF7303EA01231A4382836D
:102730007047F0B50C461546002200210026078C94
:102740004EF6FF7C07EA0C070784828B018C4FF65C
:10275000FF7707EA043640F6FF473A404FF6FF7727
:1027600007EA05273A434FF6FF7707EA03373A436C
:10277000D94FB8420ED0D94FB8420BD0B0F1804FEC
:1027800008D0D74FB84205D0D64FB84202D0D64F66
:10279000B84206D14DF6FF77394046F480573943A9
:1027A00005E047F6FF57394044F4805739438283A8
:1027B0000184F0BD828B4FF6F3731A408283828BC3
:1027C0000A4382837047F0B50C461546002200216B
:1027D0000026078C4FF6FF6C07EA0C070784828BF4
:1027E000018C4FF6FF7707EA04264FF60C773A4044
:1027F0004FF6FF7707EA03172F433A43B64FB84225
:102800000ED0B64FB8420BD0B0F1804F08D0B44FC5
:10281000B84205D0B34FB84202D0B34FB84206D148
:102820004FF6FF57394046F48077394305E04FF2C1
:10283000FF57394044F48077394382830184F0BDE7
:10284000028B4FF2FF331A400283028B4FF6FF7365
:1028500003EA01231A4302837047F0B50C4615467C
:10286000002200210026078C4FF6EF7C07EA0C07B8
:102870000784028B018C4FF6FF7707EA041640F6B7
:10288000FF473A404FF6FF7707EA03373A434FF6E0
:10289000FF7707EA05273A438F4FB8420ED08F4F94
:1028A000B8420BD0B0F1804F08D08D4FB84205D060
:1028B0008C4FB84202D08C4FB84206D14FF6DF772A
:1028C000394046F01007394305E04FF65F7739404D
:1028D00044F01007394302830184F0BD028B4FF6A8
:1028E000F3731A400283028B0A4302837047F0B5E8
:1028F0000C46154600220021068C4FF6FE773E401E
:102900000684028B018C4FF60C7632407E1C06EA60
:1029100003162E433243704EB0420ED06F4EB0427B
:102920000BD0B0F1804F08D06D4EB04205D06D4E47
:10293000B04202D06C4EB04206D14FF6FD76314027
:1029400044F00106314305E04FF6F576314044F09E
:102950000106314302830184F0BD70B505460C4683
:102960005D4885420ED05D4885420BD0B5F1804F61
:1029700008D05B48854205D05A48854202D05A4863
:10298000854200D100E000BF208850B92389A28889
:1029900061882846FFF7ABFFE1882846FFF79EFFD6
:1029A00025E0208804280AD12389A2886188284646
:1029B000FFF753FFE1882846FFF742FF17E0208822
:1029C00008280AD12389A28861882846FFF7FBFEE0
:1029D000E1882846FFF7EEFE09E02389A288618896
:1029E0002846FFF7A6FEE1882846FFF795FE70BD52
:1029F0002DE9F04105460C4600260127608808B9FC
:102A0000022600E00026A088012801D1022700E06C
:102A100001272088A0B92389A28861882846FFF76A
:102A200066FFE1882846FFF759FF23893A46314679
:102A30002846FFF712FFE1882846FFF701FF13E061
:102A40002389A28861882846FFF707FFE188284686
:102A5000FFF7F6FE23893A4631462846FFF747FF3F
:102A6000E1882846FFF73AFFBDE8F0810A884B88E5
:102A70001A438B881A43CB881A430B891A434B8914
:102A80001A438B891A43A0F8442070474FF6FF7110
:102A9000818000210180C180418001727047002146
:102AA000018041808180C180018141818181C1811A
:102AB0007047002101804180012181800021C18077
:102AC000018170470021018041808180C1800181A6
:102AD0004181818170470000002C01400034014099
:102AE0000004004000080040000C004021B10288B2
:102AF00042F00102028004E002884FF6FE731A40A1
:102B00000280704731B1B0F8442042F40042A0F88E
:102B1000442005E0B0F84420C2F30E02A0F844209F
:102B200070471AB183890B43838102E083898B4309
:102B3000838170478182704741EA0203A0F84830E0
:102B400070471AB183890B43838102E083898B43E9
:102B50008381704701894FF6F872114001817047F7
:102B60000A46002101894FF68F73194011430181F4
:102B7000704730B504460D4629462046FFF7F0FF62
:102B8000208940F00700208130BD2DE9F041044646
:102B90000D4616461F46602D06D13B4601223146A2
:102BA0002046FFF75AFE05E03B460122314620460B
:102BB000FFF79DFE29462046FFF7D2FF208940F00F
:102BC00007002081BDE8F08130B50C460021018965
:102BD000C9B24FF6FF7505EA03251543254329437E
:102BE000018130BD2DE9F04105460E461746984655
:102BF000002443463A4631462846FFF7E5FF2C8934
:102C00004FF6F870044044F007044FF68F7004400C
:102C100044F070042C81BDE8F081F0B504460D4607
:102C200016461F463B46324629462046FFF7CCFF54
:102C3000208940F480402081F0BD01858282704768
:102C40000A46002101884FF68F7319401143018015
:102C50007047F0B50C4615461E46002100220023A1
:102C60000189028B038C4FF6F877394021434FF6E8
:102C7000FC473A4040F201173A434FF6DD773B40BC
:102C80004FF6FF7707EA06172F433B430181028384
:102C90000384F0BD0A460021018B4FF68F73194063
:102CA0001143018370470A460021018B48F6FF73E8
:102CB00019404FF6FF7303EA02231943018370475B
:102CC0000A460021818B4FF68F731940114381838F
:102CD00070470A460021818B48F6FF7319404FF672
:102CE000FF7303EA022319438183704721B10288ED
:102CF00042F08002028004E002884FF67F731A409F
:102D00000280704721B1828842F00402828004E090
:102D100082884FF6FB731A408280704721B1828807
:102D200042F00802828004E082884FF6F7731A406E
:102D30008280704721B1828842F00102828004E0E3
:102D400082884FF6FE731A40828070470A4600213F
:102D5000018B4FF6F77319401143018370470A4600
:102D60000021018B4FF2FF7319404FF6FF7303EA06
:102D700002231943018370470A460021818B4FF6D5
:102D8000F77319401143818370470A460021818BF4
:102D90004FF2FF7319404FF6FF7303EA0223194302
:102DA000818370470A460021018B4FF6FB7319405F
:102DB0001143018370470A460021018B4FF6FF3310
:102DC00019404FF6FF7303EA02231943018370474A
:102DD0000A460021818B4FF6FB7319401143818312
:102DE00070470A460021818B4FF6FF3319404FF69A
:102DF000FF7303EA02231943818370470A460021C7
:102E0000018B4FF67F7319401143018370470A46C7
:102E10000021018BC1F30E014FF6FF7303EA022379
:102E20001943018370470A460021818B4FF67F7357
:102E300019401143818370470A460021818BC1F3F9
:102E40000E014FF6FF7303EA022319438183704793
:102E50000A460021018C4FF6FD731940114301848D
:102E600070470A460021018C4FF6F7731940114351
:102E7000018470470A460021018C4FF6DF73194028
:102E80004FF6FF7303EA02131943018470470A46A1
:102E90000021018C4FF67F7319404FF6FF7303EA50
:102EA00002131943018470470A460021018C4FF632
:102EB000FF5319404FF6FF7303EA022319430184BD
:102EC00070470A460021018C4FF2FF7319404FF6FC
:102ED000FF7303EA02231943018470470A46002165
:102EE000018C4DF6FF7319404FF6FF7303EA02336E
:102EF00019430184704730B5002301248C40A3B2EC
:102F0000048C9C430484048C02FA01F5ADB22C437A
:102F1000048430BD30B5002304248C40A3B2048C5B
:102F20009C430484048C02FA01F5ADB22C43048462
:102F300030BD70B503460020002418461830012526
:102F40008D40ACB21D8CA5431D8409B1082909D15F
:102F500000EB6100056825F0700505600568154304
:102F600005600EE00D1FC5F34E052844056825F4E5
:102F7000E045056005684FF6FF7606EA0226354310
:102F8000056070BD21B1028842F00202028004E0B7
:102F900002884FF6FD731A400280704721B1028803
:102FA00042F00402028004E002884FF6FB731A40EC
:102FB0000280704721B1828842F08002828004E062
:102FC00082884FF67F731A408280704702884FF6DE
:102FD000F7731A40028002880A4302807047828891
:102FE0004FF68F731A40828082880A43828070472E
:102FF00002894FF6F8731A40028102890A4302815E
:10300000704702894FF67F731A40028102890A4392
:10301000028170478184704781857047818670473F
:103020000187704781877047A0F840107047028879
:103030004FF6FF431A40028002880A43028070471D
:103040000146888E70470146088F70470146888F79
:1030500070470146B1F8400070470146888C7047C0
:103060000146088D704702460020138A0B400BB1C1
:10307000012000E000207047CA430282704730B54B
:103080000246002000230024158A05EA01039589E1
:1030900005EA010413B10CB1012000E0002030BDAD
:1030A000CA4302827047000010B50446FA488442C1
:1030B00008D101214015FEF79BFE00216015FEF7A7
:1030C00097FE17E0F548844208D101210015FEF76C
:1030D0008FFE00212015FEF78BFE0BE0F0488442A6
:1030E00008D10121C803FEF783FE00214FF4004000
:1030F000FEF77EFE10BD30B502460020002350686A
:10310000E84C20400D790C6844EA052420435060C7
:103110009068E54C2040D1E902542C434D7944EAB3
:10312000450420439060D06A20F470000C7C641E3B
:10313000E4B2234340EA0350D06230BD0021016075
:10314000017141718160C16001210174704721B139
:10315000826842F00102826003E0826822F001028C
:103160008260704721B1826842F48072826003E01D
:10317000826822F480728260704710B50023CBB25F
:103180001AB144681C43446002E044689C434460B4
:1031900010BD816841F00801816070470146002040
:1031A0008A6802F008020AB1012000E0002070479E
:1031B000816841F0040181607047014600208A68FF
:1031C00002F004020AB1012000E00020704721B1A2
:1031D000826842F4A002826003E0826822F4A002C6
:1031E00082607047014600208A6802F480020AB1BA
:1031F000012000E00020704710B50A46002100239E
:10320000416821F46041531E41EA4331416010BDE1
:1032100021B1426842F40062426003E0426822F455
:10322000006242607047F0B504460D460020002160
:10323000092D11DDE068A5F10A0606EB4607072611
:1032400006FA07F18843A5F10A0606EB460603FADB
:1032500006F10843E0600CE0206905EB450707260E
:1032600006FA07F1884305EB450603FA06F1084321
:103270002061072A0FDA606B561E06EB86071F26B1
:1032800006FA07F18843561E06EB860605FA06F194
:103290000843606322E00D2A0FDA206BD61F06EB8D
:1032A00086071F2606FA07F18843D61F06EB860617
:1032B00005FA06F10843206310E0E06AA2F10D066A
:1032C00006EB86071F2606FA07F18843A2F10D06D2
:1032D00006EB860605FA06F10843E062F0BD21B16F
:1032E000826842F48012826003E0826822F48012D5
:1032F000826070470146C86C80B2704766484C30A7
:103300000068704721B1426842F48062426003E085
:10331000426822F480624260704721B1426842F400
:103320008052426003E0426822F48052426070475B
:103330000A460021816821F4E04111438160704711
:1033400021B1826842F40042826003E0826822F484
:1033500000428260704721B1826842F402128260AA
:1033600003E0826822F40212826070470146002066
:103370008A6802F400120AB1012000E000207047C0
:10338000F0B504461546002000220026092911DD6B
:10339000E068A1F10A0707EB470C072707FA0CF2D0
:1033A0009043A1F10A0707EB470703FA07F210431E
:1033B000E0600CE0206901EB410C072707FA0CF2F2
:1033C000904301EB410703FA07F210432061A06B21
:1033D000C0F30156EF1C06F1010CA7EB0C0707EB3D
:1033E000870C1F2707FA0CF29043EF1C06F1010C23
:1033F000A7EB0C0707EB870701FA07F21043A0635E
:10340000F0BD10B50A4600210023816B21F4401164
:10341000531E41EA0351816310BD08B50023009398
:103420000090009B0B440093009B1A6008BD08B5F8
:10343000024600200090009201F12800009B1844F1
:1034400000900098006880B208BD0A4600214168DB
:10345000164B1940114341607047416282627047C8
:103460000A460021416821F01F0111434160704765
:1034700040B109490831096841F40001064A08329F
:10348000116007E004490831096821F40001024A8B
:1034900008321160704700000024014000280140FC
:1034A000003C0140FFFEF0FFFDF7F1FFFFFD3FFF95
:1034B0000246002013680B400BB1012000E0002001
:1034C0007047CA430260704770B50246002000236F
:1034D00000240B125568CEB205EA060415681D409B
:1034E00015B10CB1012000E0002070BD00220A12CD
:1034F000D34303607047000070B50446002526489A
:10350000008800F4004058B1002023490988C1F325
:103510000E01224A50542146104600F05FFD054638
:10352000284670BD2DE9F04104460E461546002799
:10353000002019490880FF2C0AD800BF18480088CD
:1035400000F040000028F9D01549091D0C8003E067
:10355000214614A0FDF704FBDEB1D5B112E00A202C
:10356000FDF7B5FF0C48008800F4004050B130462C
:10357000FFF7C2FF18B100200749088006E00020CD
:1035800005490880681E80B20500E8D100BF05B972
:1035900001273846BDE8F081260000205C000020AD
:1035A0000048004025730D0A0000000008B5DDA0AA
:1035B00000F0A2FB01210420FEF700FC01210846D7
:1035C000FEF7FCFB0121DB48FEF70DFA4FF400404B
:1035D000ADF8000010208DF8030003208DF80200E4
:1035E0006946D548FEF72EF90120D449086010201D
:1035F000ADF8000028208DF8030003208DF80200AC
:103600006946CD48FEF71EF94FF4E130FDF74FFA59
:1036100008BD1CB50020CA4908600FE00A22C9A1F4
:10362000CAA0FFF77FFF00B90FE0CA480068C04397
:10363000C949C1F894016420FDF749FF0522C7A1DB
:10364000C2A0FFF76FFF0028E8D100BF0522C5A187
:10365000C5A0FFF767FF10B9C4A000F04DFBC5A2DD
:10366000C7A1CA4800F054FB0A22BEA1C748FFF711
:1036700059FF20B9C549C6A000F03EFB03E0C3498D
:10368000C6A000F039FBBBA2C7A1C04800F040FBB8
:103690000A22B4A1BD48FFF745FF20B9BB49BCA031
:1036A00000F02AFB03E0B949BCA000F025FB06228C
:1036B000C0A1B64800F02CFB0A22AAA1B348FFF72C
:1036C00031FF20B9B149B2A000F016FB03E0AF49C9
:1036D000B2A000F011FB0120002108234FF4E132D9
:1036E000CDE90010B6A1A94800F012FB0A229DA165
:1036F000A648FFF717FF20B9A449A5A000F0FCFADF
:1037000003E0A249A5A000F0F7FA0522B1A19F4865
:1037100000F0FEFA0A2293A19C48FFF703FF20B9AC
:103720009A499BA000F0E8FA03E098499BA000F0BA
:10373000E3FA0A228BA1ABA0FFF7F4FE18B9AEA002
:1037400000F0DAFA02E0B2A000F0D6FA0A2285A16F
:10375000B6A0FFF7E7FE18B9B7A000F0CDFA02E077
:10376000BAA000F0C9FA0A227EA1BEA0FFF7DAFED5
:1037700018B9C1A000F0C0FA02E0C6A000F0BCFA7F
:103780000A2278A1CBA0FFF7CDFE18B9CDA000F09A
:10379000B3FA02E0D0A000F0AFFA5322D4A17B48E4
:1037A00000F0B6FA0A226FA17848FFF7BBFE20B9F5
:1037B000764977A000F0A0FA03E0744977A000F002
:1037C0009BFA01205E4908601CBD10B5CBA0FDF737
:1037D000C7F9CCA000F090FA10BD10B5CFA000F052
:1037E0008BFA0020554908600120FDF770FE01208A
:1037F000CF49C1F8BC01FDF76AFE10BD10B5044603
:103800002246CC480178CCA0FDF7AAF9C948027835
:103810002146CEA000F070FAC6480078401CC54989
:10382000087008460078062801D10020087010BDF5
:1038300070B500250024CD48008800F40040002821
:1038400039D0CA480088C0F30E040020C849085582
:10385000C6490880C7A000F04FFA00BF0DE000BFC6
:103860004021C548FEF7B8FC0028F9D0C048415DAA
:10387000C148FEF743FC681C85B2A542EFDBBFA13F
:10388000BB4800F0ABFB28B1082C03D100202C4929
:10389000086009E0BCA1B64800F0A0FB20B1092CEB
:1038A00002D10120264908602146B14800F0C7FB3B
:1038B0005DA000F021FA70BD70B505460026002419
:1038C000B4A000F019FA1D48AC38006818B12846B9
:1038D000FFF794FF02E0B4A000F00EFA174800686A
:1038E00010B9FFF77AFF01E0FFF76FFF601CC4B269
:1038F000142C06D1002417480068C0431649C1F8AB
:1039000094010A20FDF7E3FDACA000F0F5F970BDCD
:1039100010B50446AEA000F0EFF92046FFF7CCFF4B
:1039200010BD0000626C655F696F5F696E69740D40
:103930000A0000000002300000080140BC012142E2
:10394000948121424552524F520000002B2B2B6193
:10395000000000009401234200002342612B6F6BA2
:10396000000000004F4B0000415400004154204F24
:103970004B0D0A0041544B2D424C453031000000A4
:1039800041542B4E414D453D257300001409002044
:10399000257320204F4B0D0A0000000025732020C6
:1039A0004552524F520D0A0041542B48454C4C4F42
:1039B0003D25730041542B54504C3D2564000000BC
:1039C00041542B554152543D25642C25642C2564CB
:1039D0002C25640041542B41445054494D3D2564ED
:1039E0000000000041542B4C494E4B50415353456D
:1039F0004E3D4F464600000041542B4C494E4B5023
:103A0000415353454E3D4F464620204F4B0D0A0033
:103A100041542B4C494E4B50415353454E3D4F461C
:103A20004620204552524F520D0A000041542B4C63
:103A30004544454E3D4F4E0041542B4C4544454E68
:103A40003D4F4E20204F4B0D0A00000041542B4C9F
:103A50004544454E3D4F4E20204552524F520D0A8F
:103A60000000000041542B534C415645534C4545F2
:103A700050454E3D4F46460041542B534C41564510
:103A8000534C454550454E3D4F464620204F4B0D2B
:103A90000A00000041542B534C415645534C4545B8
:103AA00050454E3D4F464620204552524F520D0A3A
:103AB0000000000041542B4D41585055543D4F4695
:103AC0004600000041542B4D41585055543D4F463F
:103AD0004620204F4B0D0A0041542B4D4158505564
:103AE000543D4F464620204552524F520D0A000089
:103AF00041542B4D4F44453D256300003132333452
:103B0000350000000D0A554152542057616B655F26
:103B100055703A31323334350D0A00000D0A574BD7
:103B200055502057616B655F55700D0A000000000D
:103B30000000214256000020636E743A2564206420
:103B40006174613A256C64200D0A0000533A2041EB
:103B5000544B2D424C45303120444154413A256C60
:103B60006420636E743A25640D0A0000260000206C
:103B70005C000020523A0000003801402B4C4544C4
:103B8000303A4F4E000000002B4C4544303A4F462F
:103B9000460000000D0A424C452050524F4320532E
:103BA00054415254210D0A00434845434B20424C96
:103BB0004520535441544521000000000D0A424C59
:103BC000452050524F432053544F50210D0A0000BE
:103BD0000D0A41544B2D424C45303120544553542D
:103BE0000D0A0D0A0000000000B587B001214FF456
:103BF0000170FEF7E3F84FF40040FEF743F80220AF
:103C0000ADF8040000208DF8070001A92E48FDF74B
:103C100019FE2E48FFF748FA002002908DF80C009C
:103C20008DF80D004FF460200490002005900120D5
:103C30008DF8180002A92548FFF75DFA01212348F5
:103C4000FFF785FA2148FFF7A4FA00BF1F48FFF7E6
:103C5000A5FA0028FAD11D48FFF7AAFA00BF1B48B1
:103C6000FFF7ABFA0028FAD107B000BD10B5044643
:103C70000723012221461548FFF7D5FA01211348F1
:103C8000FFF7A5FA00BF02211048FFF711FC00283A
:103C9000F9D00E48FFF72EFB10BD2DE9F041074685
:103CA0000C460025002608E03846FFF7DFFF0544F4
:103CB0000520FDF70CFC701CC6B2A642F4DBB5FB78
:103CC000F4F080B2BDE8F08100080140002401401A
:103CD000704700001CB50C46064B7B4469460090BB
:103CE000204600F064FC04460020694600F072FCA7
:103CF00020461CBDF70800000FB4044910B503AA04
:103D0000029800F083FC10BC5DF814FB3C0000201E
:103D10000FB41CB5084B06AA7B4469460090059871
:103D200000F045FC04460020694600F053FC2046A4
:103D30001CBC5DF814FB0000B908000070B5044617
:103D400085690068C10601D5302600E02026C0073D
:103D500007D070BDD4E9012130469047206A401C4D
:103D600020626D1EF6D570BD70B504468569007879
:103D7000C00707D170BDD4E9012120209047206AF7
:103D8000401C20626D1EF6D570BD70B50C46054610
:103D9000012A05D02878800600D5EA69002302E0D0
:103DA000012305E05B1C934202D2E05C0028F9D1BC
:103DB000A869E618C01AA861286A1844286228462B
:103DC000FFF7BCFF04E0D5E9012114F8010B90478F
:103DD000B442F8D32846FFF7C7FF70BD2DE9F04184
:103DE0000646002410687529314616A510D000F04B
:103DF0004CF9002802DA404213A507E031688A072F
:103E000001D512A502E0490704D511A5012401E05E
:103E100000F044F900210A2206F1240709E0B0FB72
:103E2000F2FCB0FBF2F302FB1C0030307854184671
:103E3000491C0028F3D123462A463046BDE8F0410C
:103E400000F035B9000000002D0000002B0000003C
:103E5000200000002DE9F05F894604464FF0000A7B
:103E6000DFF874B1FB44C0F820A02046E168884721
:103E7000002874D0252806D0D4E901219047206A73
:103E8000401C2062F1E700265F462046E168884733
:103E90002028054607DB312D05D2781910F8200CB3
:103EA00008B10643F1E7B00701D526F00406C4F8CF
:103EB0001CA00027C4F818A02A2D09D0284601F01C
:103EC000F4FB38B304EB8708303DC8F8185019E00C
:103ED00059F8041B204604EB87029161E16888478A
:103EE000012F054618D1E069002820DA26F02006C7
:103EF0001DE0D8F8180000EB800005EB40003038DA
:103F0000C8F818002046E1688847054601F0CDFB57
:103F10000028EED1012F0AD02E2D08D12046E168CD
:103F200088477F1C0546022F46F02006C4DBA069A7
:103F3000002803DA404246F00106A061F00701D0F4
:103F400026F010066C2D0BD0682D09D04C2D39D0E1
:103F50006A2D35D0742D35D07A2D33D016E038E067
:103F6000E1682F4620468847B842054609D16C2FA4
:103F700026D04FF48060E168064320468847054616
:103F800004E06C2F1AD04FF4807006430DB3A5F1F6
:103F90004100192802D8203546F400664A462946D1
:103FA000204626604E46FCF7FDF880B101280BD074
:103FB000F61D26F0070000F1080956E74020E4E767
:103FC0008020D8E70020D6E706F104094DE728460F
:103FD00052E7206ABDE8F09F941C000030B505460A
:103FE0000B462A4613F8014B12F8010B08B1A04208
:103FF000F8D01CB1002802D06D1CF1E7284630BD76
:1040000010B5431C02E010F8011B71B18107FAD111
:104010004FF0013202C88C1A8C4314EAC211F9D055
:10402000C01A0A0603D0C01E10BDC01A10BD0A0473
:1040300001D0801E10BD0902FCD0401E10BD4FF003
:1040400000020429C0F0128010F0030C00F010846C
:10405000CCF1040CBCF1020F18BF00F8012BA8BF73
:1040600020F8022BA1EB0C0100F002BC5FEAC17C3E
:1040700024BF00F8012B00F8012B48BF00F8012BEA
:104080007047704770477047704709684A0501D507
:1040900040B27047C905FCD500B2704709684A05AF
:1040A00001D5C0B27047C905FCD580B270472DE973
:1040B000F0470D4699469246044600F124080168EF
:1040C000880604D5E06921F01001216000E001209C
:1040D000A84201DD471B00E00027A1697A1902EB25
:1040E0000900081AA0612078C00602D42046FFF714
:1040F00025FE002608E0D4E901211AF806009047C1
:10410000206A401C761C20624E45F4DB2078C006F5
:104110000AD52046FFF712FE06E0D4E9012130203F
:104120009047206A401C2062381EA7F10107F4DC8A
:1041300007E0D4E9012118F805009047206A401CE7
:104140002062281EA5F10105F3DC2046FFF70CFED6
:104150002078000602D50220BDE8F0870120FBE7A9
:1041600011680268006A530501D508700AE0D3059A
:1041700001D5088006E0130603D5C217C1E9000285
:1041800000E008600120704770472DE9FF4F0C46A2
:104190001E464FF0FF378BB0D2E90001DDF860809A
:1041A0000A908A46C1F30A5505B93D4600210846E2
:1041B0004FF00000BAF1000F00F4400005DA00EB08
:1041C00080004FF4400101EA50004FEA9059B9F1E4
:1041D000010F00DDB9460A9850EA4A000ED044F6B5
:1041E0001050A5F2FF3545432F14B8F1000F1ED033
:1041F0007542291E1EDDC9F100021CE0B8F1010F55
:104200004FF0000001D0302103E0F24305E02154DB
:10421000401CB042FBDB30460022002121540B99A8
:10422000C1F80880C1E900200FB0BDE8F08FBD1BC8
:104230006D1CDEE74A4600DA694206A800F05CFD24
:1042400006AB93E8070003AB83E8070050460A99E2
:1042500000F05CFE8DE80700A0F500501F380090CC
:104260000398002D09DD42F21F014A46084403A9C4
:104270000390684601F0BBF808E0A0F500504A46FC
:104280001F3803A90390684601F0C5F88DE80700C0
:104290000004000C03D04FF0FF30410800E010464E
:1042A000B8F1000F03D00022009215461EE0751EE3
:1042B00005D400F007FB303262556D1EF9D5B346C8
:1042C0000122084302D000227F1C04E0207830281D
:1042D00001D100227F1E002A099786D01DE0112DF2
:1042E00007DA00F0EFFA303262556D1C50EA010235
:1042F000F5D1084302D00098C8B10EE00021681E35
:1043000005E0235C625C63542254401E491C8142D8
:10431000F7DBAB46A81B401E0990002004F80B00F9
:104320000B98099AC0F80880C0E9002B7CE7112699
:104330004FF0000859E72DE9F04F88460446D21D9A
:1043400022F0070191B0D1E90001CDE90A0101F0A5
:1043500098F902460B98C00F01D02D2007E0206885
:10436000810701D52B2002E0202101EAC000032AA9
:10437000099001D0072A05DB03464146204600F09C
:1043800065FC0BE12078800601D5E06900E006209D
:10439000B8F1650F814606D0B8F1660F18D0B8F1B4
:1043A000670F70D131E00020B9F1110F009001DBEF
:1043B000112301E009F101030AAA01A90CA8FFF7E2
:1043C000E4FEDDE90C70002609F10105834647E0B3
:1043D00001204B4600904FF000470AAA01A90CA803
:1043E000FFF7D3FEDDE90DB00C995D46002610B94C
:1043F00009F101000D18B9EB050003D4C0F1FF3637
:1044000009F10105A5EB09002BE0B9F1010F01DA73
:104410004FF001090020B9F1110F0090484601DD6D
:10442000112300E003460AAA01A90CA8FFF7ADFE7C
:10443000DDE90C704D4600268346207800070AD43B
:10444000AB4500DA5D4601A8012D04DD411911F8E4
:10445000011C302907D04F4502DA17F1040F04DAA6
:10446000012082460FE06D1EEEE7002F02DCED1BFF
:104470003E4403E0781CA84200DD7D1CB81B00F11F
:10448000010A4FF000472078000703D4AA4501DB5A
:104490004FF0FF3A0021B7F1004F0DF143088DF8BE
:1044A000431024D002202B23002F01DA7F422D233A
:1044B0000A21021EA0F1010000DC5FB197FBF1FCB4
:1044C00097FBF1F201FB1C7C17460CF1300C08F84D
:1044D00001CDEEE7A8F1010003702188090501D59F
:1044E000452100E06521A0F1010800F8011C0998B0
:1044F0000FA9A1EB0807FF1D00B10120411901EB35
:10450000EA70A1693844081A401EA0612078C006EC
:1045100002D42046FFF712FC099828B1D4E9012102
:104520009047206A401C20622078C00622D5204691
:10453000FFF704FC1EE0002E04DBB34502DD01A8FA
:10454000805D00E03020D4E901219047206A401CC2
:104550002062761CAAF101005FEA000A0AD100F08D
:10456000ADF9C0680168405CD4E901219047206A38
:10457000401C2062281EA5F10105DCDC07E0D4E91F
:10458000012118F8010B9047206A401C2062381E58
:10459000A7F10107F3DC2046FFF7E6FB032011B08B
:1045A00043E6000001694A1C02610878704700B5C3
:1045B0008FB0CDE901310021059105497944CDE95C
:1045C000031011466846FFF745FC0FB000BD000020
:1045D000E5FFFFFF0A6802F8010B0A60704710B59B
:1045E000436913B1AFF3008001E0FFF7CEFB012078
:1045F00010BD127800F124010A7000224A700122D5
:10460000EDE711684FF0FF32E9E70000074B70B5A6
:104610000D467B44FFF7CBFF0446284600F0DAFB4B
:1046200010B14FF0FF3070BD204670BD17CFFFFFB7
:104630002DE9FF5F15468A460446DFF8AC80F84452
:104640000027D8E900103E46CDE9001010E03AF806
:1046500016106A4602A800F0C1FB411C07D0217861
:10466000890603D5E269391891420DD80744761CB2
:104670002078800602D5E069B84205DDAE42E6DB6F
:104680003AF816000028E2D1A069C01BA0612046BC
:10469000FFF754FBD8E90010CDE90010002017E027
:1046A0003AF818106A4602A800F098FBB0F1FF3FF4
:1046B00081460BD000250DF1080B05E0D4E901215E
:1046C0001BF8050090476D1C4D45F7D308F101001C
:1046D000B0428046E4DB206A384420622046FFF77F
:1046E00043FBBDE8FF9F0000CE1400002DE9F04120
:1046F0008046D21D22F007020025D2E90002F529EA
:1047000015A614D0011E72F1000106DA0023D0EBC9
:10471000030063EB020211A608E0D8F800108B0733
:1047200001D50FA602E0490701D50EA601251146C5
:10473000002408F1240704E000F0C4F830323A55B0
:10474000641C50EA0102F7D12B463246214640460E
:10475000BDE8F041FFF7ABBC000000002D000000F9
:104760002B0000002000000030B4002100F12404E0
:1047700008E002F00705D208303542EA4372DB0850
:104780006554491C52EA0305F3D10468002310A2C2
:10479000250708D504F020040C4304D0C469012384
:1047A0000CA2641EC46130BCFFF781BC10B5044686
:1047B00021461068FFF772FC02462046BDE8104013
:1047C0000023D1E7D21D22F00701D1E90023CBE776
:1047D0000000000030000000F0B40D46018809051B
:1047E00002D5214C7C4402E01F4C7C440E34002155
:1047F00000F1240608E002F00F071209E75D42EA23
:1048000003721B097754491C52EA0307F3D102785B
:104810000023120704D5702D06D009B102231134EC
:104820002246F0BCFFF743BC01231034F8E770B513
:1048300004460D4621461068FFF730FC0246294623
:104840002046BDE870400023C6E7D21D22F00703D2
:10485000D3E90023C0E70368126843F02003036034
:104860000823C3610023B7E7301300004FF00002B4
:1048700000B5134694469646203922BFA0E80C5056
:10488000A0E80C50B1F12001BFF4F7AF090728BF31
:10489000A0E80C5048BF0CC05DF804EB890028BFAD
:1048A00040F8042B08BF704748BF20F8022B11F0D6
:1048B000804F18BF00F8012B704700000048704778
:1048C0006809002030B5B0F10A024FEA900E71F18C
:1048D00000034EEA817EB0EB0E0061EB91014FEADE
:1048E000101E4EEA017E10EB0E0041EB11114FEA53
:1048F000102E4EEA016E10EB0E0041EB11214FEA33
:10490000104E4EEA014E10EB0E0041EB11414018E3
:1049100041F100014FEAD00040EA41704FEAD10175
:1049200010EB80054FEA810444EA907444EB0104E3
:104930006D1944EB0404521BA3414FF0000348BF20
:104940000A3200D530BD401C41F1000130BD0000ED
:104950002DE9F04F04460D46D21D22F0070089B024
:10496000D0E9009248461746394600F08AFE0246D2
:10497000F80F01D02D2307E02068810701D52B23F4
:1049800002E0202101EAC0038DF820300BB10120A4
:1049900000E00020032A824601D0072A04DB2946D2
:1049A000204600F053F93DE12078800601D40D2522
:1049B00000E0E569C7F30A560D2D49DA00214FEAF8
:1049C000175B08464FF00000002F00F4400007DAA4
:1049D00000EB80004FF4400100EBD07001EA600072
:1049E0008115012901DD4FF0FF3100224FEA850CCE
:1049F000BCF1180F06D31346ACF118004FF08052EB
:104A0000C24003E04FF4801323FA0CF30CF10C0CBA
:104A1000BCF1200F04D3ACF1200C09FA0CF001E03A
:104A200007FA0CF000294FF0004801DD18B90FE03B
:104A30000ED140450CD319EB02095F4121B9404525
:104A400002D19F4329EA0209BBEB175F00D0761C15
:104A50002088000502D57B48784402E079487844F4
:104A6000193808AA302302F80A30037C0AF1010140
:104A7000002E0AF1020A53546A4602DC4FF030015C
:104A800001E04FF031014FF001088DF8001002D025
:104A9000A6F2FF3603E059EA470100D06A4E002D26
:104AA00002DC2178090704D54FF002082E218DF889
:104AB0000110C44600210BE0C7F303433F01C35C70
:104AC000491C6D1E02F80830052908F1010801DAB9
:104AD000002DF1DC00210CE000EB1973491C1B7860
:104AE0006D1E082902F808304FEA091908F101087B
:104AF00001DA002DF0DC2178890602D514E0A8F156
:104B00000108E04505DD02EB080111F8011C302920
:104B1000F5D0B8F1000F07DD02EB080111F8011C18
:104B20002E2901D1A8F10108002D05DD3E2102F852
:104B300008106D1E08F10108407C002E02F80800E4
:104B400008F1010804DA2D20764202F8080002E09C
:104B50002B2002F808000A214FF47A70864208F1EF
:104B600001080BDB96FBF0F3303302F8083096FBBC
:104B7000F0F308F1010800FB136601E0642E0CDB82
:104B8000642096FBF0F3303302F8083096FBF0F324
:104B900008F1010800FB136601E00A2E06DB96FB14
:104BA000F1F0303002F8080008F1010896FBF1F04E
:104BB00001FB1060303002F80800A16908F101081B
:104BC00008EB050202EB0A00081AA0612078C00673
:104BD00002D42046FFF7B2F8216A08AE01EB0A00C2
:104BE000206204E0D4E9012116F8010B9047BAF1E4
:104BF000010AF7D22078C00602D52046FFF79EF8BA
:104C00006E4609E016F8010B3E280FD0D4E90121C9
:104C10009047206A401C2062B8F10108F2D2204679
:104C2000FFF7A2F809B00320BDE8F08F206A2844FE
:104C3000206203E0D4E90121302090476D1EEBD3C0
:104C4000F8E70000F710000002FCFFFF2DE9F0413B
:104C50001F46044603260168072A01F4006004DBAE
:104C600008B116A505E016A503E008B115A500E0FA
:104C700015A521F010002060A069C01EA0610FB131
:104C8000401EA0612046FFF759F84FB1D4E9012139
:104C900038469047206A401C2062C01C206206E013
:104CA000206AFAE7D4E9012115F8010B9047761E36
:104CB000F8D22046FFF758F8BDE8F0814E414E008B
:104CC0006E616E00494E4600696E660010B543691C
:104CD00013B1AFF3008001E0FFF7AAFC012010BD83
:104CE000128800F1240182840022C2840122EDE7AF
:104CF00011684FF0FF32E9E72DE9F047814616468B
:104D00008AB0334878440DC88DE80D0030487844A7
:104D1000801C03AC0DC884E80D0041F69B300844AC
:104D2000372190FBF1F290FBF1F5A5F1800501FB35
:104D300012041B3C02D56442012000E00020DFF891
:104D400090A080460027FA44AAF1BE0A0DE0E007D1
:104D500009D03246684607EB47010AEB810100F0B3
:104D60005AFB8DE8070064107F1C002CEFD1184F10
:104D70007F44AC3F18E0E80714D007EB04100DF1B6
:104D8000180A90E80E008AE80E00C068F04201D1CF
:104D900098190890324606A903A800F03CFB03AB23
:104DA00083E807006D10641C002DE4D1324669468B
:104DB000B8F1000F03A802D000F019FB01E000F0E9
:104DC0002AFBC9E90001C9F808200AB0BDE8F0874C
:104DD000DC0E0000007B00F08000704770B51646C6
:104DE0000C46054600F044F8036893F801010128D9
:104DF00006D0FF2C0FD8185D68B101202C7070BD53
:104E0000D3F807013246214603F20713034428462C
:104E1000BDE8704018474FF0FF3070BD0048704744
:104E2000480900207546FFF7F9FFAE4605006946C0
:104E3000534620F00700854618B020B5FCF722FC49
:104E4000BDE820404FF000064FF000074FF000088B
:104E50004FF0000B21F00701AC46ACE8C009ACE80C
:104E6000C009ACE8C009ACE8C0098D467047000035
:104E700010B5FFF723FD001D10BD00BF690800003D
:104E80000446AFF300802046FBF7EFF94FF0013CFA
:104E900050F8042B51F8043B9A4221D1A2EB0C03A9
:104EA000934313EACC1317D150F8042B51F8043B69
:104EB0009A4215D1A2EB0C03934313EACC130BD106
:104EC00050F8042B51F8043B9A4209D1A2EB0C0391
:104ED000934313EACC13DBD04FF00000704700BFC0
:104EE000D01A01BAB1FA81F101F0180122FA01F0E9
:104EF000CB40C1F12001DBB2C0B2C01A2CFA01F3E1
:104F0000D11A914311EAC311E6D170475FEA400C10
:104F100008BF91F0000F4FEA8C234FEAC12243EA09
:104F200051514FEA1C5018BF00F5F0404FEA3000D5
:104F300018BF41F000415FEA6C5C00F02980BCF1D1
:104F4000FF3F08BF40F080407047130C06BF1204BB
:104F50004FF0100C4FF0000C130E04BF12020CF1B6
:104F6000080C130F04BF12010CF1040C930F04BFC3
:104F700092000CF1020CD30F04BF52000CF1010C93
:104F800011464FF00002A0F11F00A0EB0C0070478B
:104F900011F0004F08BF704731F000413FF4D5AF2A
:104FA0000B0C06BF09044FF0100C4FF0000C0B0E59
:104FB00004BF09020CF1080C0B0F04BF09010CF12E
:104FC000040C8B0F04BF89000CF1020CCB0F04BF43
:104FD00049000CF1010CCCF12003A0EB0C0022FAEB
:104FE00003F302FA0CF241EA030100F101007047F9
:104FF00020F07F4C80EA030023F07F47ACEB0703EF
:1050000003F57C5300F0004003F1FF032DE98049D4
:105010004FEA154B09B44FEA144325EA0B4E24EA34
:1050200003480FF2042606EB132749083E785FEA8F
:10503000320203FB0667C7F5000707FB06F64FEAD7
:1050400054374FEAD64606F1020607FB066CCCF150
:10505000005C4FEA1C472CEA074C07FB06F40CFBEC
:1050600006F504EB15464FEA961634BF00204FF0C4
:1050700000404FEAD13706FB07FC4FEA1C4C0CFB03
:105080000BF7D21B03FB0CF761EB07010CFB0EF7D0
:10509000B0EB074072EB17420CFB08F734BFA2EBF2
:1050A0000742B2EB074261EB17414FEA0C444FEA6B
:1050B000910706FB07FC4FEA1C4C0CFB0BF7B0EB0F
:1050C000C74072EB573203FB0CF734BFA2EBC74269
:1050D000B2EBC74261EB57310CFB0EF7B0EBC700E8
:1050E00072EB57720CFB08F734BFA2EBC702B2EBAE
:1050F000C70261EB5771039F4FEA816141EA921148
:1051000004EBCC044FEAD1374FEA826206FB07FC7E
:1051100042EA90124FEA80604FEA1C4C0CFB0BF7FE
:10512000D21B03FB0CF761EB07010CFB0EF7B0EB96
:10513000074072EB17420CFB08F734BFA2EB0742A3
:10514000B2EB074261EB17414FEA8C554FEA9107EA
:1051500004EB9C2406FB07FC4FEA1C4C0CFB0BF7F2
:10516000B0EBC74072EB573203FB0CF734BFA2EB36
:10517000C742B2EBC74261EB57310CFB0EF7B0EB05
:10518000C70072EB57720CFB08F734BFA2EBC702E3
:10519000B2EBC70261EB577115EB4C254FEA816109
:1051A00041EA92114FEA82624FEAD13742EA901205
:1051B00006FB07FC44F100044FEA80604FEA1C4CF8
:1051C0000CFB0BF7D21B03FB0CF761EB07010CFB8D
:1051D0000EF7B0EB074072EB17420CFB08F734BF39
:1051E000A2EB0742B2EB074261EB174115EB1C152E
:1051F0004FEA813141EA92414FEA823242EA9042DB
:105200004FEA80304FEA0C7644F1000448EA034349
:105210004EEA0B484FF0000EB2EB080C71EB03079F
:1052200024BF624639464EEB0E0E4FF0000B0018BD
:10523000524149414BEB0B0BB2EB080C71EB0307EE
:105240007BF1000B24BF624639464EEB0E0E4FF049
:10525000000B0018524149414BEB0B0BB2EB080C11
:1052600071EB03077BF1000B24BF624639464EEB1E
:105270000E0E51EA020718BF46F0010616EB0E7635
:1052800055F1000254F1000103D5BDE88901BDE8E4
:105290000088BDE88901BDE80048B619524141EBDC
:1052A0000101A3F10103704780807F7E7D7C7B7AC2
:1052B0007978777676757473727171706F6E6E6DC2
:1052C0006C6C6B6A6A696868676666656464636368
:1052D00062616160605F5F5E5E5D5D5C5C5B5B5AEE
:1052E0005A5959585857575656555555545453535B
:1052F00052525251515050504F4F4F4E4E4D4D4DB6
:105300004C4C4C4B4B4B4A4A4A4949494848484700
:10531000474747464646454545444444444343433E
:105320004342424242414141002B26D4770021D0E2
:105330001CB54FEA370703B44FF010004FF01001CF
:105340004FF000000FBCBDE810400BF1010BBBF1AA
:10535000010F08BF5FEA170722BF12F1010211F126
:1053600001014FF0004143F1000300F0004043EA27
:1053700000007047F9D35708DAE746EA064613F10A
:10538000400F4FEA16461FDD13F1200FDFBF164313
:105390000A46002120335B42C8D0C3F1200746EA09
:1053A000064602FA07F74FEA164646EA0706C3F131
:1053B000200722FA03F201FA07F721FA03F14FF06E
:1053C000000342EA0702B1E746EA020646EA064659
:1053D0004FEA164646EA0106BCBF46EA0646360CC8
:1053E0004FF000034FF000024FF000019EE72DE95F
:1053F000C048934630B491E8380007C831EA400C01
:1054000048BF34EA430C03D5FFF7F2FDFFF78CFFEA
:10541000F0BCBDE800882DE9C048934630B491E85F
:10542000380007C810F0804F08BF13F0804F03D139
:1054300000F005F8FFF778FFF0BCBDE8008820F029
:105440007F4780EA030023F07F4C07EB0C03A3F5B2
:105450007C5300F00040A3F1FE0392F0000F00F037
:10546000B38095F0000F00F077802DE901494FEAF5
:1054700011404FEA144621EA004800FB06FC24EAEA
:10548000064708FB06F607FB08F800FB07F718EBD2
:1054900006484CEB164C4FEA124B18EB07484FEA04
:1054A00015464CEB174022EA0B4E0BFB06FC25EA97
:1054B00006470EFB06F607FB0EFE0BFB07F71EEB7F
:1054C000064E4CEB164C4FF000061EEB074E4CEB15
:1054D000174B18EB0B0840F1000018EB0E0B58EBC4
:1054E000000840F100008F1A4FF000013CBFC94393
:1054F000661B14BFB5EB040C00213CBFC943F61B6F
:105500004FEA17444EEA8E0E27EA04454FEA1C473D
:1055100004FB07622CEA074C05FB07F70CFB05F6BA
:1055200004FB0CFC16EB074642EB174216EB0C464D
:1055300042EB1C421BEB060658EB0202414146EAD5
:105540009E0601D5BDE80189B619524141EB010122
:10555000A3F10103BDE801894FEA14454FEA114761
:1055600024EA054621EA074C05FB07F406FB07F78A
:105570000CFB06F105FB0CFC11EB074144EB174457
:105580004FEA124711EB0C4144EB1C4422EA074C52
:1055900005FB07F206FB07F70CFB06F605FB0CFC08
:1055A00016EB074642EB174216EB0C4642EB1C4546
:1055B0006A1854F1000148BF7047B619524141EBD7
:1055C0000101A3F10103704795F0000F37D04FEAB6
:1055D00011424FEA144721EA024624EA074C02FB33
:1055E00007F106FB07F70CFB06F402FB0CFC14EBBF
:1055F000074441EB17414FEA154714EB0C4441EBCC
:105600001C4125EA074C02FB07F506FB07F70CFBDC
:1056100006F602FB0CFC16EB074645EB174516EBAE
:105620000C4645EB1C42121951F1000148BF70476E
:10563000B619524141EB0101A3F1010370474FEA52
:1056400014454FEA114724EA054621EA074C05FBB9
:1056500007F106FB07F70CFB06F24FF0000605FB0F
:105660000CFC12EB074241EB174112EB0C4251EBE1
:105670001C4148BF7047921841EB0101A3F101039F
:105680007047490050EAC12018BF04204A0D18BFD6
:1056900040F0010040F2FF72B2EB515F08BF40F0F2
:1056A0000200012808BF0520704730380A2801D2BF
:1056B000012070470020704710B500290AD00878F3
:1056C000002807D005487844FFF7E0FB002801D008
:1056D000002010BD0248784410BD000056050000AF
:1056E0004E05000010B500290AD00878002807D020
:1056F00005487844FFF7CAFB002801D0002010BD00
:105700000248784410BD0000460500003E05000038
:105710000808A0F500114FEA3101704743004FEA35
:10572000D30C4FEA3C0C43401FBF40070CF16051C3
:1057300013F0FE4F70471CF0006F03D100200CF0F7
:10574000004170470CF0004343EA507010B540EA46
:10575000CC0000F07EF900BF000000924FEA00018B
:10576000FFF7D6BF4FF000414FF00000A1F5002138
:10577000704700004FF47F0C1CEAD0121EBF1CEAD9
:10578000D11392EA0C0F93EA0C0F00F0858090EA97
:10579000010F48BF42F4807240F4000C41F4000055
:1057A0002CF07F4120F07F4000B58142A2EB030244
:1057B0000FF2081CACEB504EC0F100009EF800E068
:1057C0004FEA4E0E00FB0EFC38BF49004FEA2C1C7E
:1057D00002F5FA020CFB0EF34FEACE1E4FEA112C33
:1057E0004FEAC1210EEB635E42EB22420EFB0CFC42
:1057F0004FEA1C5300FB03114FEA112C4FEA013111
:105800000EFB0CFC4FEADC4C00FB0C11C14228BF24
:1058100009184CEB03335DF804EB10EB410143EB4B
:10582000C250B2F57C0F38BF704729D512F0F00F87
:105830001CBF00F1C04000F000407047008182832F
:105840008485868788898B8C8D8E8F91929395968F
:1058500097999A9C9D9FA0A2A3A5A7A8AAACAEB019
:10586000B2B3B5B7B9BCBEC0C2C5C7C9CCCED1D41E
:10587000D7D9DCDFE2E6E9ECF0F3F7FAFE0000004E
:105880004FEA400C0CF1807CBCF17E4F28BF704782
:10589000B0F1C04000F023B990EA010F0CEAD11337
:1058A00048BF42F48072624538BF634507D213F4A3
:1058B0007F0F16D080EA010000F00040704710B55D
:1058C00000F0C7F8097EFC3E00F005B880EA010050
:1058D00000F00040704780EA010000F0004000F056
:1058E000FEB812F47F0F04BF0248704780EA01003F
:1058F00000F0F5B80000C07F10F0004148BF404202
:10590000B0FA80F310FA03F2C3F19D030BD051EA11
:10591000C35101EB1220530638BF704700F101005C
:1059200008BF20F001007047B0FA80F310FA03F2CC
:10593000C3F19D030AD0D90501EB1220530638BFED
:10594000704700F1010008BF20F00100704700001F
:105950004FF47F0C1CEAD0121EBF1CEAD11392EA4E
:105960000C0F93EA0C0F00F0478090EA010F48BF3C
:1059700042F480724FF0004C4CEA00204CEA0121C6
:1059800002EB0302A0FB0113A2F50002002918BFDD
:1059900043F001035B0028BF4FEA330342EB22428E
:1059A0005FEA132C4CEBC2502EBFBCEB436FB2F539
:1059B0007C0F70474FEA036CBCF1004F08BF20F02A
:1059C0000100B2F57C0F38BF70470BD582F0FF02A3
:1059D00012F5803FC8BF704700F1C040D8BF00F04B
:1059E0000040704700F5000C5FEA4C0C48BF704760
:1059F000B0F1C04000F073B890EA010F0CEAD11387
:105A000048BF42F48072624538BF634504D280EAE1
:105A1000010000F00040704710B500F01AF800BF18
:105A20008900013E00F007B800F009B85FEA410CB8
:105A30005FEA1C6C08D080EA010000F050B85FEA11
:105A4000400C5FEA1C6CF6D14FF00040A0F58000DE
:105A500070470EF1020E2EF0030E5EF8044B244246
:105A600004D44FEA4102B2F17F4F11D84FEA40030C
:105A7000B3F17F4F0CD80ED14FEAD07CB2F17F4FFB
:105A80000CEB4C0C0CF1020C08BF4CEBD17C04E08D
:105A90004FF0080C01E04FEAD17C0CEB4C0324FAE8
:105AA00003F404F00704B4F1040C06D20EEB840CEA
:105AB000BDE810404CF0010C6047DFE80CF007082F
:105AC00002024FF00040A0F5800010BD08464200E1
:105AD00018BFD2F1807288BF00F0004010BDFF21D6
